{
  "contractName": "BankSmartContract",
  "abi": [
    {
      "inputs": [
        {
          "internalType": "contract Token",
          "name": "_token",
          "type": "address"
        }
      ],
      "stateMutability": "nonpayable",
      "type": "constructor"
    },
    {
      "anonymous": false,
      "inputs": [
        {
          "indexed": true,
          "internalType": "address",
          "name": "sender",
          "type": "address"
        },
        {
          "indexed": false,
          "internalType": "uint256",
          "name": "amount",
          "type": "uint256"
        }
      ],
      "name": "Stake",
      "type": "event"
    },
    {
      "anonymous": false,
      "inputs": [
        {
          "indexed": true,
          "internalType": "address",
          "name": "sender",
          "type": "address"
        },
        {
          "indexed": false,
          "internalType": "uint256",
          "name": "amount",
          "type": "uint256"
        }
      ],
      "name": "UnStake",
      "type": "event"
    },
    {
      "inputs": [],
      "name": "amount",
      "outputs": [
        {
          "internalType": "uint256",
          "name": "",
          "type": "uint256"
        }
      ],
      "stateMutability": "view",
      "type": "function"
    },
    {
      "inputs": [
        {
          "internalType": "address",
          "name": "",
          "type": "address"
        }
      ],
      "name": "isStaking",
      "outputs": [
        {
          "internalType": "bool",
          "name": "",
          "type": "bool"
        }
      ],
      "stateMutability": "view",
      "type": "function"
    },
    {
      "inputs": [],
      "name": "owner",
      "outputs": [
        {
          "internalType": "address",
          "name": "",
          "type": "address"
        }
      ],
      "stateMutability": "view",
      "type": "function"
    },
    {
      "inputs": [
        {
          "internalType": "address",
          "name": "",
          "type": "address"
        }
      ],
      "name": "rewardBalance",
      "outputs": [
        {
          "internalType": "uint256",
          "name": "",
          "type": "uint256"
        }
      ],
      "stateMutability": "view",
      "type": "function"
    },
    {
      "inputs": [
        {
          "internalType": "address",
          "name": "",
          "type": "address"
        }
      ],
      "name": "stakeTime",
      "outputs": [
        {
          "internalType": "uint256",
          "name": "",
          "type": "uint256"
        }
      ],
      "stateMutability": "view",
      "type": "function"
    },
    {
      "inputs": [
        {
          "internalType": "uint256",
          "name": "",
          "type": "uint256"
        }
      ],
      "name": "stakers",
      "outputs": [
        {
          "internalType": "address",
          "name": "",
          "type": "address"
        }
      ],
      "stateMutability": "view",
      "type": "function"
    },
    {
      "inputs": [
        {
          "internalType": "address",
          "name": "",
          "type": "address"
        }
      ],
      "name": "stakingBalanceOf",
      "outputs": [
        {
          "internalType": "uint256",
          "name": "",
          "type": "uint256"
        }
      ],
      "stateMutability": "view",
      "type": "function"
    },
    {
      "inputs": [],
      "name": "time",
      "outputs": [
        {
          "internalType": "uint256",
          "name": "",
          "type": "uint256"
        }
      ],
      "stateMutability": "view",
      "type": "function"
    },
    {
      "inputs": [],
      "name": "token",
      "outputs": [
        {
          "internalType": "contract Token",
          "name": "",
          "type": "address"
        }
      ],
      "stateMutability": "view",
      "type": "function"
    },
    {
      "inputs": [],
      "name": "totalStakeBalance",
      "outputs": [
        {
          "internalType": "uint256",
          "name": "",
          "type": "uint256"
        }
      ],
      "stateMutability": "view",
      "type": "function"
    },
    {
      "inputs": [
        {
          "internalType": "uint256",
          "name": "_amount",
          "type": "uint256"
        }
      ],
      "name": "stake",
      "outputs": [],
      "stateMutability": "payable",
      "type": "function"
    },
    {
      "inputs": [
        {
          "internalType": "uint256",
          "name": "_amount",
          "type": "uint256"
        }
      ],
      "name": "unStake",
      "outputs": [],
      "stateMutability": "payable",
      "type": "function"
    },
    {
      "inputs": [
        {
          "internalType": "address",
          "name": "_user",
          "type": "address"
        }
      ],
      "name": "poolOneReward",
      "outputs": [
        {
          "internalType": "uint256",
          "name": "",
          "type": "uint256"
        }
      ],
      "stateMutability": "nonpayable",
      "type": "function"
    },
    {
      "inputs": [
        {
          "internalType": "address",
          "name": "_user",
          "type": "address"
        }
      ],
      "name": "poolTwoReward",
      "outputs": [
        {
          "internalType": "uint256",
          "name": "",
          "type": "uint256"
        }
      ],
      "stateMutability": "nonpayable",
      "type": "function"
    },
    {
      "inputs": [
        {
          "internalType": "address",
          "name": "_user",
          "type": "address"
        }
      ],
      "name": "poolThirdReward",
      "outputs": [
        {
          "internalType": "uint256",
          "name": "",
          "type": "uint256"
        }
      ],
      "stateMutability": "nonpayable",
      "type": "function"
    }
  ],
  "bytecode": "0x608060405269021e19e0c9bab2400000600055603c600555620151806006556202a3006007556203f4806008553480156200003957600080fd5b50604051620019373803806200193783398181016040528101906200005f91906200016d565b80601060006101000a81548173ffffffffffffffffffffffffffffffffffffffff021916908373ffffffffffffffffffffffffffffffffffffffff16021790555033600160006101000a81548173ffffffffffffffffffffffffffffffffffffffff021916908373ffffffffffffffffffffffffffffffffffffffff16021790555042600281905550506200019f565b600080fd5b600073ffffffffffffffffffffffffffffffffffffffff82169050919050565b60006200012182620000f4565b9050919050565b6000620001358262000114565b9050919050565b620001478162000128565b81146200015357600080fd5b50565b60008151905062000167816200013c565b92915050565b600060208284031215620001865762000185620000ef565b5b6000620001968482850162000156565b91505092915050565b61178880620001af6000396000f3fe6080604052600436106100e85760003560e01c806376ec1b351161008a578063b39336ab11610059578063b39336ab14610302578063e73341ee1461033f578063fc0c546a1461037c578063fd5e6dd1146103a7576100e8565b806376ec1b35146102535780638da5cb5b14610290578063a694fc3a146102bb578063aa8c217c146102d7576100e8565b80635d3eea91116100c65780635d3eea911461018057806362e3efdd1461019c57806367b40cf7146101d95780636f49712b14610216576100e8565b806316ada547146100ed5780632170e4721461011857806334949cc114610155575b600080fd5b3480156100f957600080fd5b506101026103e4565b60405161010f9190611114565b60405180910390f35b34801561012457600080fd5b5061013f600480360381019061013a9190611192565b6103ea565b60405161014c9190611114565b60405180910390f35b34801561016157600080fd5b5061016a610402565b6040516101779190611114565b60405180910390f35b61019a600480360381019061019591906111eb565b610408565b005b3480156101a857600080fd5b506101c360048036038101906101be9190611192565b610a0c565b6040516101d09190611114565b60405180910390f35b3480156101e557600080fd5b5061020060048036038101906101fb9190611192565b610a24565b60405161020d9190611114565b60405180910390f35b34801561022257600080fd5b5061023d60048036038101906102389190611192565b610a3c565b60405161024a9190611233565b60405180910390f35b34801561025f57600080fd5b5061027a60048036038101906102759190611192565b610a5c565b6040516102879190611114565b60405180910390f35b34801561029c57600080fd5b506102a5610b29565b6040516102b2919061125d565b60405180910390f35b6102d560048036038101906102d091906111eb565b610b4f565b005b3480156102e357600080fd5b506102ec610f0f565b6040516102f99190611114565b60405180910390f35b34801561030e57600080fd5b5061032960048036038101906103249190611192565b610f15565b6040516103369190611114565b60405180910390f35b34801561034b57600080fd5b5061036660048036038101906103619190611192565b610fe2565b6040516103739190611114565b60405180910390f35b34801561038857600080fd5b50610391611096565b60405161039e91906112d7565b60405180910390f35b3480156103b357600080fd5b506103ce60048036038101906103c991906111eb565b6110bc565b6040516103db919061125d565b60405180910390f35b60025481565b600f6020528060005260406000206000915090505481565b60035481565b6000600a60003373ffffffffffffffffffffffffffffffffffffffff1673ffffffffffffffffffffffffffffffffffffffff1681526020019081526020016000205490506001600c60003373ffffffffffffffffffffffffffffffffffffffff1673ffffffffffffffffffffffffffffffffffffffff16815260200190815260200160002060006101000a81548160ff02191690831515021790556104e2576040517f08c379a00000000000000000000000000000000000000000000000000000000081526004016104d99061134f565b60405180910390fd5b80600010610525576040517f08c379a000000000000000000000000000000000000000000000000000000000815260040161051c906113bb565b60405180910390fd5b600080600f60003373ffffffffffffffffffffffffffffffffffffffff1673ffffffffffffffffffffffffffffffffffffffff1681526020019081526020016000205442610573919061140a565b600981905550600654600954106106e45761058d33610fe2565b9150818361059b919061143e565b9050601060009054906101000a900473ffffffffffffffffffffffffffffffffffffffff1673ffffffffffffffffffffffffffffffffffffffff1663a9059cbb33836040518363ffffffff1660e01b81526004016105fa929190611494565b6020604051808303816000875af1158015610619573d6000803e3d6000fd5b505050506040513d601f19601f8201168201806040525081019061063d91906114e9565b508160008082825461064f919061140a565b925050819055508260036000828254610668919061140a565b925050819055506000600c60003373ffffffffffffffffffffffffffffffffffffffff1673ffffffffffffffffffffffffffffffffffffffff16815260200190815260200160002060006101000a81548160ff021916908315150217905550600e60008154809291906106da90611516565b91905055506109b8565b6007546009541061084f576106f833610f15565b91508183610706919061143e565b9050601060009054906101000a900473ffffffffffffffffffffffffffffffffffffffff1673ffffffffffffffffffffffffffffffffffffffff1663a9059cbb33836040518363ffffffff1660e01b8152600401610765929190611494565b6020604051808303816000875af1158015610784573d6000803e3d6000fd5b505050506040513d601f19601f820116820180604052508101906107a891906114e9565b50816000808282546107ba919061140a565b9250508190555082600360008282546107d3919061140a565b925050819055506000600c60003373ffffffffffffffffffffffffffffffffffffffff1673ffffffffffffffffffffffffffffffffffffffff16815260200190815260200160002060006101000a81548160ff021916908315150217905550600e600081548092919061084590611516565b91905055506109b7565b600754600954106109b65761086333610a5c565b91508183610871919061143e565b9050601060009054906101000a900473ffffffffffffffffffffffffffffffffffffffff1673ffffffffffffffffffffffffffffffffffffffff1663a9059cbb33836040518363ffffffff1660e01b81526004016108d0929190611494565b6020604051808303816000875af11580156108ef573d6000803e3d6000fd5b505050506040513d601f19601f8201168201806040525081019061091391906114e9565b5081600080828254610925919061140a565b92505081905550826003600082825461093e919061140a565b925050819055506000600c60003373ffffffffffffffffffffffffffffffffffffffff1673ffffffffffffffffffffffffffffffffffffffff16815260200190815260200160002060006101000a81548160ff021916908315150217905550600e60008154809291906109b090611516565b91905055505b5b5b3373ffffffffffffffffffffffffffffffffffffffff167fb24546d975e2628748efc9aced80665e0fad66272033e5c0ea25fd3afac99795856040516109fe9190611114565b60405180910390a250505050565b600a6020528060005260406000206000915090505481565b600b6020528060005260406000206000915090505481565b600c6020528060005260406000206000915054906101000a900460ff1681565b600080610a6883610f15565b905060006064905060006032905060008282600054610a879190611540565b610a9191906115c9565b9050600083600354600a60008a73ffffffffffffffffffffffffffffffffffffffff1673ffffffffffffffffffffffffffffffffffffffff16815260200190815260200160002054610ae391906115c9565b610aed9190611540565b90506000848284610afe9190611540565b610b0891906115c9565b905060008682610b18919061143e565b905080975050505050505050919050565b600160009054906101000a900473ffffffffffffffffffffffffffffffffffffffff1681565b8060008111610b93576040517f08c379a0000000000000000000000000000000000000000000000000000000008152600401610b8a90611646565b60405180910390fd5b600073ffffffffffffffffffffffffffffffffffffffff163373ffffffffffffffffffffffffffffffffffffffff161415610c03576040517f08c379a0000000000000000000000000000000000000000000000000000000008152600401610bfa906116b2565b60405180910390fd5b601060009054906101000a900473ffffffffffffffffffffffffffffffffffffffff1673ffffffffffffffffffffffffffffffffffffffff166323b872dd3330856040518463ffffffff1660e01b8152600401610c62939291906116d2565b6020604051808303816000875af1158015610c81573d6000803e3d6000fd5b505050506040513d601f19601f82011682018060405250810190610ca591906114e9565b50600c60003373ffffffffffffffffffffffffffffffffffffffff1673ffffffffffffffffffffffffffffffffffffffff16815260200190815260200160002060009054906101000a900460ff16610d7357600d339080600181540180825580915050600190039060005260206000200160009091909190916101000a81548173ffffffffffffffffffffffffffffffffffffffff021916908373ffffffffffffffffffffffffffffffffffffffff160217905550600e6000815480929190610d6d90611709565b91905055505b6001600c60003373ffffffffffffffffffffffffffffffffffffffff1673ffffffffffffffffffffffffffffffffffffffff16815260200190815260200160002060006101000a81548160ff02191690831515021790555081600a60003373ffffffffffffffffffffffffffffffffffffffff1673ffffffffffffffffffffffffffffffffffffffff1681526020019081526020016000206000828254610e1a919061143e565b9250508190555042600f60003373ffffffffffffffffffffffffffffffffffffffff1673ffffffffffffffffffffffffffffffffffffffff16815260200190815260200160002081905550600a60003373ffffffffffffffffffffffffffffffffffffffff1673ffffffffffffffffffffffffffffffffffffffff1681526020019081526020016000205460036000828254610eb6919061143e565b925050819055503373ffffffffffffffffffffffffffffffffffffffff167febedb8b3c678666e7f36970bc8f57abf6d8fa2e828c0da91ea5b75bf68ed101a83604051610f039190611114565b60405180910390a25050565b60045481565b600080610f2183610fe2565b90506000606490506000601e905060008282600054610f409190611540565b610f4a91906115c9565b9050600083600354600a60008a73ffffffffffffffffffffffffffffffffffffffff1673ffffffffffffffffffffffffffffffffffffffff16815260200190815260200160002054610f9c91906115c9565b610fa69190611540565b90506000848284610fb79190611540565b610fc191906115c9565b905060008682610fd1919061143e565b905080975050505050505050919050565b60008060649050600060149050600082826000546110009190611540565b61100a91906115c9565b9050600083600354600a60008973ffffffffffffffffffffffffffffffffffffffff1673ffffffffffffffffffffffffffffffffffffffff1681526020019081526020016000205461105c91906115c9565b6110669190611540565b905060008482846110779190611540565b61108191906115c9565b90506000819050809650505050505050919050565b601060009054906101000a900473ffffffffffffffffffffffffffffffffffffffff1681565b600d81815481106110cc57600080fd5b906000526020600020016000915054906101000a900473ffffffffffffffffffffffffffffffffffffffff1681565b6000819050919050565b61110e816110fb565b82525050565b60006020820190506111296000830184611105565b92915050565b600080fd5b600073ffffffffffffffffffffffffffffffffffffffff82169050919050565b600061115f82611134565b9050919050565b61116f81611154565b811461117a57600080fd5b50565b60008135905061118c81611166565b92915050565b6000602082840312156111a8576111a761112f565b5b60006111b68482850161117d565b91505092915050565b6111c8816110fb565b81146111d357600080fd5b50565b6000813590506111e5816111bf565b92915050565b6000602082840312156112015761120061112f565b5b600061120f848285016111d6565b91505092915050565b60008115159050919050565b61122d81611218565b82525050565b60006020820190506112486000830184611224565b92915050565b61125781611154565b82525050565b6000602082019050611272600083018461124e565b92915050565b6000819050919050565b600061129d61129861129384611134565b611278565b611134565b9050919050565b60006112af82611282565b9050919050565b60006112c1826112a4565b9050919050565b6112d1816112b6565b82525050565b60006020820190506112ec60008301846112c8565b92915050565b600082825260208201905092915050565b7f596f752077697368000000000000000000000000000000000000000000000000600082015250565b60006113396008836112f2565b915061134482611303565b602082019050919050565b600060208201905081810360008301526113688161132c565b9050919050565b7f4e6f20746f6b656e7320746f20756e7374616b65000000000000000000000000600082015250565b60006113a56014836112f2565b91506113b08261136f565b602082019050919050565b600060208201905081810360008301526113d481611398565b9050919050565b7f4e487b7100000000000000000000000000000000000000000000000000000000600052601160045260246000fd5b6000611415826110fb565b9150611420836110fb565b925082821015611433576114326113db565b5b828203905092915050565b6000611449826110fb565b9150611454836110fb565b9250827fffffffffffffffffffffffffffffffffffffffffffffffffffffffffffffffff03821115611489576114886113db565b5b828201905092915050565b60006040820190506114a9600083018561124e565b6114b66020830184611105565b9392505050565b6114c681611218565b81146114d157600080fd5b50565b6000815190506114e3816114bd565b92915050565b6000602082840312156114ff576114fe61112f565b5b600061150d848285016114d4565b91505092915050565b6000611521826110fb565b91506000821415611535576115346113db565b5b600182039050919050565b600061154b826110fb565b9150611556836110fb565b9250817fffffffffffffffffffffffffffffffffffffffffffffffffffffffffffffffff048311821515161561158f5761158e6113db565b5b828202905092915050565b7f4e487b7100000000000000000000000000000000000000000000000000000000600052601260045260246000fd5b60006115d4826110fb565b91506115df836110fb565b9250826115ef576115ee61159a565b5b828204905092915050565b7f616d6f756e742073686f756c6420626520626967676572207468616e20300000600082015250565b6000611630601e836112f2565b915061163b826115fa565b602082019050919050565b6000602082019050818103600083015261165f81611623565b9050919050565b7f42616e6b2063616e6e6f74206465706f73697420746f20706f6f6c0000000000600082015250565b600061169c601b836112f2565b91506116a782611666565b602082019050919050565b600060208201905081810360008301526116cb8161168f565b9050919050565b60006060820190506116e7600083018661124e565b6116f4602083018561124e565b6117016040830184611105565b949350505050565b6000611714826110fb565b91507fffffffffffffffffffffffffffffffffffffffffffffffffffffffffffffffff821415611747576117466113db565b5b60018201905091905056fea264697066735822122051efb48a47f9b49eedb03f19ff69a50aed76b8fec539cb26491faa0b6117190664736f6c634300080a0033",
  "immutableReferences": {},
  "source": "// SPDX-License-Identifier: MIT\r\n\r\npragma solidity ^0.8.10;\r\n\r\nimport \"./Token.sol\";\r\n\r\ncontract BankSmartContract {\r\n    uint256 totalFarmSupply = 10000 * 1e18; // 10,000 in rewards - farm supply\r\n    address public owner;\r\n    uint256 public time;\r\n    uint256 public totalStakeBalance;\r\n    uint256 public amount;\r\n\r\n    uint256 private duration = 60 seconds;\r\n    uint256 private poolOneTime = 86400 seconds; // lock period for pool one.\r\n    uint256 private poolTwoTime = 172800 seconds; // lock period for pool two.\r\n    uint256 private poolThirdTime = 259200 seconds; // lock period for pool three;\r\n    uint256 private totalStakedTime;\r\n\r\n    mapping(address => uint256) public stakingBalanceOf;\r\n    mapping(address => uint256) public rewardBalance;\r\n    mapping(address => bool) public isStaking;\r\n    //mapping(address => bool) hasStaked;\r\n    address[] public stakers;\r\n    uint256 stakerCount;\r\n    mapping(address => uint256) public stakeTime; //start time\r\n\r\n    //Approved mapping and array, refer to line 58.\r\n    /*mapping(address => bool) approved;\r\n    mapping(address => bool) public isApproved;\r\n    address[] public hasApproved;*/\r\n\r\n    event Stake(address indexed sender, uint256 amount);\r\n    event UnStake(address indexed sender, uint256 amount);\r\n    Token public token;\r\n\r\n    constructor(Token _token) {\r\n        token = _token;\r\n        owner = msg.sender;\r\n        time = block.timestamp;\r\n    }\r\n\r\n    modifier checkBalance(uint256 _amount) {\r\n        require(_amount > 0, \"amount should be bigger than 0\");\r\n        _;\r\n    }\r\n\r\n    function stake(uint256 _amount) public payable checkBalance(_amount) {\r\n        require(msg.sender != address(0), \"Bank cannot deposit to pool\");\r\n\r\n        //this can be used but wont be neccessary, uncomment if you wish to use. refer to line 35.\r\n        /*if (isApproved[msg.sender] = false) {\r\n            token.approve(address(this), _amount);\r\n            hasApproved.push(msg.sender);\r\n            isApproved[msg.sender] = true;\r\n        }*/\r\n\r\n        token.transferFrom(msg.sender, address(this), _amount);\r\n\r\n        //update the user's balance\r\n        if (!isStaking[msg.sender]) {\r\n            stakers.push(msg.sender);\r\n            stakerCount++;\r\n        }\r\n        isStaking[msg.sender] = true;\r\n        stakingBalanceOf[msg.sender] += _amount;\r\n        stakeTime[msg.sender] = block.timestamp;\r\n        totalStakeBalance += stakingBalanceOf[msg.sender];\r\n\r\n        emit Stake(msg.sender, _amount);\r\n    }\r\n\r\n    function unStake(uint256 _amount) public payable {\r\n        uint256 balance = stakingBalanceOf[msg.sender];\r\n        require(isStaking[msg.sender] = true, \"You wish\");\r\n        require(0 < balance, \"No tokens to unstake\");\r\n        uint256 rewards;\r\n        uint256 totalAmount;\r\n\r\n        totalStakedTime = block.timestamp - stakeTime[msg.sender];\r\n\r\n        if (totalStakedTime >= poolOneTime) {\r\n            rewards = poolOneReward(msg.sender);\r\n            totalAmount = balance + rewards;\r\n            token.transfer(msg.sender, totalAmount);\r\n            totalFarmSupply -= rewards;\r\n            totalStakeBalance -= balance;\r\n            isStaking[msg.sender] = false;\r\n            stakerCount--;\r\n        } else if (totalStakedTime >= poolTwoTime) {\r\n            rewards = poolTwoReward(msg.sender);\r\n            totalAmount = balance + rewards;\r\n            token.transfer(msg.sender, totalAmount);\r\n            totalFarmSupply -= rewards;\r\n            totalStakeBalance -= balance;\r\n            isStaking[msg.sender] = false;\r\n            stakerCount--;\r\n        } else if (totalStakedTime >= poolTwoTime) {\r\n            rewards = poolThirdReward(msg.sender);\r\n            totalAmount = balance + rewards;\r\n            token.transfer(msg.sender, totalAmount);\r\n            totalFarmSupply -= rewards;\r\n            totalStakeBalance -= balance;\r\n            isStaking[msg.sender] = false;\r\n            stakerCount--;\r\n        }\r\n\r\n        emit UnStake(msg.sender, _amount);\r\n    }\r\n\r\n    //internal view to public for testing\r\n    function poolOneReward(address _user) public returns (uint256) {\r\n        //pool 1 - Time 1 day\r\n        uint256 percentage = 100;\r\n        uint256 poolWeight = 20;\r\n        uint256 poolOneSupply = ((totalFarmSupply) * (poolWeight)) /\r\n            (percentage);\r\n        uint256 userAllocation = (stakingBalanceOf[_user] /\r\n            (totalStakeBalance)) * (percentage);\r\n        uint256 rewardOne = (poolOneSupply * (userAllocation)) / (percentage);\r\n        uint256 totalReward = rewardOne;\r\n        return totalReward;\r\n    }\r\n\r\n    function poolTwoReward(address _user) public returns (uint256) {\r\n        //pool 2 - Time 2 day\r\n        uint256 previousReward = poolOneReward(_user);\r\n        uint256 percentage = 100;\r\n        uint256 poolWeight = 30;\r\n        uint256 poolTwoSupply = ((totalFarmSupply) * (poolWeight)) /\r\n            (percentage);\r\n        uint256 userAllocation = (stakingBalanceOf[_user] /\r\n            (totalStakeBalance)) * (percentage);\r\n        uint256 rewardTwo = (poolTwoSupply * (userAllocation)) / (percentage);\r\n        uint256 totalReward = rewardTwo + previousReward;\r\n        return totalReward;\r\n    }\r\n\r\n    function poolThirdReward(address _user) public returns (uint256) {\r\n        //pool 3 - Time 3 day\r\n        uint256 previousReward = poolTwoReward(_user);\r\n        uint256 percentage = 100;\r\n        uint256 poolWeight = 50;\r\n        uint256 poolThirdSupply = ((totalFarmSupply) * (poolWeight)) /\r\n            (percentage);\r\n        uint256 userAllocation = (stakingBalanceOf[_user] /\r\n            (totalStakeBalance)) * (percentage);\r\n        uint256 rewardThird = (poolThirdSupply * (userAllocation)) /\r\n            (percentage);\r\n        uint256 totalReward = rewardThird + previousReward;\r\n        return totalReward;\r\n    }\r\n}\r\n",
  "sourcePath": "/mnt/c/pr0/Bank-Smart-Contract/src/contracts/BankSmartContract.sol",
  "compiler": {
    "name": "solc",
    "version": "0.8.10+commit.fc410830.Emscripten.clang"
  },
  "schemaVersion": "3.4.3",
  "updatedAt": "2022-03-12T04:09:49.312Z",
  "devdoc": {
    "kind": "dev",
    "methods": {},
    "version": 1
  },
  "userdoc": {
    "kind": "user",
    "methods": {},
    "version": 1
  }
}