{
  "contractName": "BankSmartContract",
  "abi": [
    {
      "inputs": [
        {
          "internalType": "contract Token",
          "name": "_token",
          "type": "address"
        }
      ],
      "stateMutability": "nonpayable",
      "type": "constructor"
    },
    {
      "anonymous": false,
      "inputs": [
        {
          "indexed": true,
          "internalType": "address",
          "name": "sender",
          "type": "address"
        },
        {
          "indexed": false,
          "internalType": "uint256",
          "name": "amount",
          "type": "uint256"
        }
      ],
      "name": "Stake",
      "type": "event"
    },
    {
      "anonymous": false,
      "inputs": [
        {
          "indexed": true,
          "internalType": "address",
          "name": "sender",
          "type": "address"
        },
        {
          "indexed": false,
          "internalType": "uint256",
          "name": "amount",
          "type": "uint256"
        }
      ],
      "name": "UnStake",
      "type": "event"
    },
    {
      "inputs": [],
      "name": "amount",
      "outputs": [
        {
          "internalType": "uint256",
          "name": "",
          "type": "uint256"
        }
      ],
      "stateMutability": "view",
      "type": "function",
      "constant": true
    },
    {
      "inputs": [
        {
          "internalType": "address",
          "name": "",
          "type": "address"
        }
      ],
      "name": "balanceOf",
      "outputs": [
        {
          "internalType": "uint256",
          "name": "",
          "type": "uint256"
        }
      ],
      "stateMutability": "view",
      "type": "function",
      "constant": true
    },
    {
      "inputs": [
        {
          "internalType": "address",
          "name": "",
          "type": "address"
        }
      ],
      "name": "isApproved",
      "outputs": [
        {
          "internalType": "bool",
          "name": "",
          "type": "bool"
        }
      ],
      "stateMutability": "view",
      "type": "function",
      "constant": true
    },
    {
      "inputs": [
        {
          "internalType": "address",
          "name": "",
          "type": "address"
        }
      ],
      "name": "isStaking",
      "outputs": [
        {
          "internalType": "bool",
          "name": "",
          "type": "bool"
        }
      ],
      "stateMutability": "view",
      "type": "function",
      "constant": true
    },
    {
      "inputs": [],
      "name": "owner",
      "outputs": [
        {
          "internalType": "address",
          "name": "",
          "type": "address"
        }
      ],
      "stateMutability": "view",
      "type": "function",
      "constant": true
    },
    {
      "inputs": [],
      "name": "reward",
      "outputs": [
        {
          "internalType": "uint256",
          "name": "",
          "type": "uint256"
        }
      ],
      "stateMutability": "view",
      "type": "function",
      "constant": true
    },
    {
      "inputs": [
        {
          "internalType": "address",
          "name": "",
          "type": "address"
        }
      ],
      "name": "rewardBalance",
      "outputs": [
        {
          "internalType": "uint256",
          "name": "",
          "type": "uint256"
        }
      ],
      "stateMutability": "view",
      "type": "function",
      "constant": true
    },
    {
      "inputs": [
        {
          "internalType": "address",
          "name": "",
          "type": "address"
        }
      ],
      "name": "stakeTime",
      "outputs": [
        {
          "internalType": "uint256",
          "name": "",
          "type": "uint256"
        }
      ],
      "stateMutability": "view",
      "type": "function",
      "constant": true
    },
    {
      "inputs": [],
      "name": "time",
      "outputs": [
        {
          "internalType": "uint256",
          "name": "",
          "type": "uint256"
        }
      ],
      "stateMutability": "view",
      "type": "function",
      "constant": true
    },
    {
      "inputs": [],
      "name": "token",
      "outputs": [
        {
          "internalType": "contract Token",
          "name": "",
          "type": "address"
        }
      ],
      "stateMutability": "view",
      "type": "function",
      "constant": true
    },
    {
      "inputs": [],
      "name": "totalStake",
      "outputs": [
        {
          "internalType": "uint256",
          "name": "",
          "type": "uint256"
        }
      ],
      "stateMutability": "view",
      "type": "function",
      "constant": true
    },
    {
      "inputs": [
        {
          "internalType": "uint256",
          "name": "_amount",
          "type": "uint256"
        }
      ],
      "name": "stake",
      "outputs": [],
      "stateMutability": "payable",
      "type": "function",
      "payable": true
    },
    {
      "inputs": [
        {
          "internalType": "uint256",
          "name": "_amount",
          "type": "uint256"
        }
      ],
      "name": "unStake",
      "outputs": [],
      "stateMutability": "payable",
      "type": "function",
      "payable": true
    }
  ],
  "bytecode": "0x6080604052683635c9adc5dea000006000553480156200001e57600080fd5b50604051620010a0380380620010a0833981810160405281019062000044919062000152565b80600a60006101000a81548173ffffffffffffffffffffffffffffffffffffffff021916908373ffffffffffffffffffffffffffffffffffffffff16021790555033600160006101000a81548173ffffffffffffffffffffffffffffffffffffffff021916908373ffffffffffffffffffffffffffffffffffffffff160217905550426002819055505062000184565b600080fd5b600073ffffffffffffffffffffffffffffffffffffffff82169050919050565b60006200010682620000d9565b9050919050565b60006200011a82620000f9565b9050919050565b6200012c816200010d565b81146200013857600080fd5b50565b6000815190506200014c8162000121565b92915050565b6000602082840312156200016b576200016a620000d4565b5b60006200017b848285016200013b565b91505092915050565b610f0c80620001946000396000f3fe6080604052600436106100c25760003560e01c80636f49712b1161007f5780638da5cb5b116100595780638da5cb5b14610295578063a694fc3a146102c0578063aa8c217c146102dc578063fc0c546a14610307576100c2565b80636f49712b146101f057806370a082311461022d5780638b0e9f3f1461026a576100c2565b806316ada547146100c75780632170e472146100f2578063228cb7331461012f5780635d3eea911461015a578063673448dd1461017657806367b40cf7146101b3575b600080fd5b3480156100d357600080fd5b506100dc610332565b6040516100e99190610a9d565b60405180910390f35b3480156100fe57600080fd5b5061011960048036038101906101149190610b1b565b610338565b6040516101269190610a9d565b60405180910390f35b34801561013b57600080fd5b50610144610350565b6040516101519190610a9d565b60405180910390f35b610174600480360381019061016f9190610b74565b610356565b005b34801561018257600080fd5b5061019d60048036038101906101989190610b1b565b610635565b6040516101aa9190610bbc565b60405180910390f35b3480156101bf57600080fd5b506101da60048036038101906101d59190610b1b565b610655565b6040516101e79190610a9d565b60405180910390f35b3480156101fc57600080fd5b5061021760048036038101906102129190610b1b565b61066d565b6040516102249190610bbc565b60405180910390f35b34801561023957600080fd5b50610254600480360381019061024f9190610b1b565b61068d565b6040516102619190610a9d565b60405180910390f35b34801561027657600080fd5b5061027f6106a5565b60405161028c9190610a9d565b60405180910390f35b3480156102a157600080fd5b506102aa6106ab565b6040516102b79190610be6565b60405180910390f35b6102da60048036038101906102d59190610b74565b6106d1565b005b3480156102e857600080fd5b506102f1610a58565b6040516102fe9190610a9d565b60405180910390f35b34801561031357600080fd5b5061031c610a5e565b6040516103299190610c60565b60405180910390f35b60025481565b60096020528060005260406000206000915090505481565b60005481565b60011515600660003373ffffffffffffffffffffffffffffffffffffffff1673ffffffffffffffffffffffffffffffffffffffff16815260200190815260200160002060009054906101000a900460ff161515146103e9576040517f08c379a00000000000000000000000000000000000000000000000000000000081526004016103e090610cd8565b60405180910390fd5b80600560003373ffffffffffffffffffffffffffffffffffffffff1673ffffffffffffffffffffffffffffffffffffffff16815260200190815260200160002060008282546104389190610d27565b925050819055506000600560003373ffffffffffffffffffffffffffffffffffffffff1673ffffffffffffffffffffffffffffffffffffffff1681526020019081526020016000205411156104d85760011515600660003373ffffffffffffffffffffffffffffffffffffffff1673ffffffffffffffffffffffffffffffffffffffff16815260200190815260200160002060009054906101000a905050505b60001515600660003373ffffffffffffffffffffffffffffffffffffffff1673ffffffffffffffffffffffffffffffffffffffff16815260200190815260200160002060009054906101000a90505050600a60009054906101000a900473ffffffffffffffffffffffffffffffffffffffff1673ffffffffffffffffffffffffffffffffffffffff1663a9059cbb33836040518363ffffffff1660e01b8152600401610585929190610d5b565b6020604051808303816000875af11580156105a4573d6000803e3d6000fd5b505050506040513d601f19601f820116820180604052508101906105c89190610db0565b50600454600360008282546105dd9190610d27565b925050819055503373ffffffffffffffffffffffffffffffffffffffff167fb24546d975e2628748efc9aced80665e0fad66272033e5c0ea25fd3afac997958260405161062a9190610a9d565b60405180910390a250565b60076020528060005260406000206000915054906101000a900460ff1681565b60086020528060005260406000206000915090505481565b60066020528060005260406000206000915054906101000a900460ff1681565b60056020528060005260406000206000915090505481565b60035481565b600160009054906101000a900473ffffffffffffffffffffffffffffffffffffffff1681565b60008111610714576040517f08c379a000000000000000000000000000000000000000000000000000000000815260040161070b90610e29565b60405180910390fd5b60001515600760003373ffffffffffffffffffffffffffffffffffffffff1673ffffffffffffffffffffffffffffffffffffffff16815260200190815260200160002060009054906101000a900460ff161515141561080f57600a60009054906101000a900473ffffffffffffffffffffffffffffffffffffffff1673ffffffffffffffffffffffffffffffffffffffff1663095ea7b330836040518363ffffffff1660e01b81526004016107ca929190610d5b565b6020604051808303816000875af11580156107e9573d6000803e3d6000fd5b505050506040513d601f19601f8201168201806040525081019061080d9190610db0565b505b600a60009054906101000a900473ffffffffffffffffffffffffffffffffffffffff1673ffffffffffffffffffffffffffffffffffffffff166323b872dd3330846040518463ffffffff1660e01b815260040161086e93929190610e49565b6020604051808303816000875af115801561088d573d6000803e3d6000fd5b505050506040513d601f19601f820116820180604052508101906108b19190610db0565b5060011515600760003373ffffffffffffffffffffffffffffffffffffffff1673ffffffffffffffffffffffffffffffffffffffff16815260200190815260200160002060009054906101000a9050505080600560003373ffffffffffffffffffffffffffffffffffffffff1673ffffffffffffffffffffffffffffffffffffffff16815260200190815260200160002060008282546109519190610e80565b9250508190555060011515600660003373ffffffffffffffffffffffffffffffffffffffff1673ffffffffffffffffffffffffffffffffffffffff16815260200190815260200160002060009054906101000a9050505042600960003373ffffffffffffffffffffffffffffffffffffffff1673ffffffffffffffffffffffffffffffffffffffff1681526020019081526020016000208190555060045460036000828254610a009190610e80565b925050819055503373ffffffffffffffffffffffffffffffffffffffff167febedb8b3c678666e7f36970bc8f57abf6d8fa2e828c0da91ea5b75bf68ed101a82604051610a4d9190610a9d565b60405180910390a250565b60045481565b600a60009054906101000a900473ffffffffffffffffffffffffffffffffffffffff1681565b6000819050919050565b610a9781610a84565b82525050565b6000602082019050610ab26000830184610a8e565b92915050565b600080fd5b600073ffffffffffffffffffffffffffffffffffffffff82169050919050565b6000610ae882610abd565b9050919050565b610af881610add565b8114610b0357600080fd5b50565b600081359050610b1581610aef565b92915050565b600060208284031215610b3157610b30610ab8565b5b6000610b3f84828501610b06565b91505092915050565b610b5181610a84565b8114610b5c57600080fd5b50565b600081359050610b6e81610b48565b92915050565b600060208284031215610b8a57610b89610ab8565b5b6000610b9884828501610b5f565b91505092915050565b60008115159050919050565b610bb681610ba1565b82525050565b6000602082019050610bd16000830184610bad565b92915050565b610be081610add565b82525050565b6000602082019050610bfb6000830184610bd7565b92915050565b6000819050919050565b6000610c26610c21610c1c84610abd565b610c01565b610abd565b9050919050565b6000610c3882610c0b565b9050919050565b6000610c4a82610c2d565b9050919050565b610c5a81610c3f565b82525050565b6000602082019050610c756000830184610c51565b92915050565b600082825260208201905092915050565b7f596f752077697368000000000000000000000000000000000000000000000000600082015250565b6000610cc2600883610c7b565b9150610ccd82610c8c565b602082019050919050565b60006020820190508181036000830152610cf181610cb5565b9050919050565b7f4e487b7100000000000000000000000000000000000000000000000000000000600052601160045260246000fd5b6000610d3282610a84565b9150610d3d83610a84565b925082821015610d5057610d4f610cf8565b5b828203905092915050565b6000604082019050610d706000830185610bd7565b610d7d6020830184610a8e565b9392505050565b610d8d81610ba1565b8114610d9857600080fd5b50565b600081519050610daa81610d84565b92915050565b600060208284031215610dc657610dc5610ab8565b5b6000610dd484828501610d9b565b91505092915050565b7f616d6f756e742073686f756c6420626520626967676572207468616e20300000600082015250565b6000610e13601e83610c7b565b9150610e1e82610ddd565b602082019050919050565b60006020820190508181036000830152610e4281610e06565b9050919050565b6000606082019050610e5e6000830186610bd7565b610e6b6020830185610bd7565b610e786040830184610a8e565b949350505050565b6000610e8b82610a84565b9150610e9683610a84565b9250827fffffffffffffffffffffffffffffffffffffffffffffffffffffffffffffffff03821115610ecb57610eca610cf8565b5b82820190509291505056fea2646970667358221220d171beedfcbd7ce00578b62e280efd10999dd65d29ee37e0141262d7dde36f9764736f6c634300080a0033",
  "immutableReferences": {},
  "source": "// SPDX-License-Identifier: MIT\r\n\r\npragma solidity ^0.8.10;\r\n\r\nimport \"./Token.sol\";\r\n\r\n/* things we need to build the staking system:\r\n1. Token contract - import from openzeppelin,\r\n2. Mapping to track the stakeholders, rewards, stakes (staking amount)\r\n3. A reward system\r\n*/\r\n\r\ncontract BankSmartContract {\r\n    uint256 public reward = 1000 * 1e18; // 1000 in rewards - farm supply\r\n    address public owner;\r\n    uint256 public time;\r\n    uint256 public totalStake;\r\n    uint256 public amount;\r\n    //Balances of the users -\r\n    mapping(address => uint256) public balanceOf;\r\n    mapping(address => bool) public isStaking;\r\n    mapping(address => bool) public isApproved;\r\n    mapping(address => uint256) public rewardBalance;\r\n    mapping(address => uint256) public stakeTime;\r\n\r\n    event Stake(address indexed sender, uint256 amount);\r\n    event UnStake(address indexed sender, uint256 amount);\r\n    Token public token;\r\n\r\n    // contructor\r\n    constructor(Token _token) {\r\n        token = _token;\r\n        owner = msg.sender;\r\n        time = block.timestamp;\r\n        //totalStake += amount;\r\n    }\r\n\r\n    //stake function\r\n    function stake(uint256 _amount) public payable {\r\n        require(_amount > 0, \"amount should be bigger than 0\");\r\n\r\n        if (isApproved[msg.sender] == false) {\r\n            token.approve(address(this), _amount);\r\n        }\r\n        token.transferFrom(msg.sender, address(this), _amount);\r\n        //update the user's balance\r\n        isApproved[msg.sender] == true;\r\n        balanceOf[msg.sender] += _amount;\r\n        isStaking[msg.sender] == true;\r\n        stakeTime[msg.sender] = block.timestamp;\r\n        totalStake += amount;\r\n\r\n        //emit to notify the chanhe onto blockchain\r\n        emit Stake(msg.sender, _amount);\r\n    }\r\n\r\n    function unStake(uint256 _amount) public payable {\r\n        require(isStaking[msg.sender] == true, \"You wish\");\r\n        balanceOf[msg.sender] -= _amount;\r\n        if (balanceOf[msg.sender] > 0) {\r\n            isStaking[msg.sender] == true;\r\n        }\r\n        isStaking[msg.sender] == false;\r\n        token.transfer(msg.sender, _amount);\r\n        totalStake -= amount;\r\n\r\n        emit UnStake(msg.sender, _amount);\r\n    }\r\n\r\n    function poolOneReward(address _user) internal view returns (uint256) {\r\n        //pool 1 - Time 1 day\r\n        uint256 percentage = 100;\r\n        uint256 poolWeight = 20;\r\n        uint256 poolOneSupply = ((totalStake) * (poolWeight)) / (percentage);\r\n        uint256 userAllocation = (balanceOf[_user] / (totalStake)) *\r\n            (percentage);\r\n        uint256 rewardOne = (poolOneSupply * (userAllocation)) / (percentage);\r\n        return rewardOne;\r\n    }\r\n\r\n    function poolTwoReward(address _user) internal view returns (uint256) {\r\n        //pool 1 - Time 1 day\r\n        uint256 previousReward = poolOneReward(_user);\r\n        uint256 percentage = 100;\r\n        uint256 poolWeight = 30;\r\n        uint256 poolTwoSupply = ((totalStake) * (poolWeight)) / (percentage);\r\n        uint256 userAllocation = (balanceOf[_user] / (totalStake)) *\r\n            (percentage);\r\n        uint256 rewardTwo = (poolTwoSupply * (userAllocation)) / (percentage);\r\n        uint256 totalReward = rewardTwo + previousReward;\r\n        return totalReward;\r\n    }\r\n\r\n    function poolThirdReward(address _user) internal view returns (uint256) {\r\n        //pool 1 - Time 1 day\r\n        uint256 previousReward = poolTwoReward(_user);\r\n        uint256 percentage = 100;\r\n        uint256 poolWeight = 50;\r\n        uint256 poolThirdSupply = ((totalStake) * (poolWeight)) / (percentage);\r\n        uint256 userAllocation = (balanceOf[_user] / (totalStake)) *\r\n            (percentage);\r\n        uint256 rewardThird = (poolThirdSupply * (userAllocation)) /\r\n            (percentage);\r\n        uint256 totalReward = rewardThird + previousReward;\r\n        return totalReward;\r\n    }\r\n}\r\n",
  "sourcePath": "/mnt/c/pr0/Bank-Smart-Contract/src/contracts/BankSmartContract.sol",
  "compiler": {
    "name": "solc",
    "version": "0.8.10+commit.fc410830.Emscripten.clang"
  },
  "schemaVersion": "3.4.3",
  "updatedAt": "2022-02-13T03:37:41.703Z",
  "networkType": "ethereum",
  "devdoc": {
    "kind": "dev",
    "methods": {},
    "version": 1
  },
  "userdoc": {
    "kind": "user",
    "methods": {},
    "version": 1
  }
}