{
  "contractName": "BankSmartContract",
  "abi": [
    {
      "inputs": [
        {
          "internalType": "contract Token",
          "name": "_token",
          "type": "address"
        }
      ],
      "stateMutability": "nonpayable",
      "type": "constructor"
    },
    {
      "anonymous": false,
      "inputs": [
        {
          "indexed": true,
          "internalType": "address",
          "name": "sender",
          "type": "address"
        },
        {
          "indexed": false,
          "internalType": "uint256",
          "name": "amount",
          "type": "uint256"
        }
      ],
      "name": "Stake",
      "type": "event"
    },
    {
      "anonymous": false,
      "inputs": [
        {
          "indexed": true,
          "internalType": "address",
          "name": "sender",
          "type": "address"
        },
        {
          "indexed": false,
          "internalType": "uint256",
          "name": "amount",
          "type": "uint256"
        }
      ],
      "name": "UnStake",
      "type": "event"
    },
    {
      "inputs": [
        {
          "internalType": "address",
          "name": "",
          "type": "address"
        }
      ],
      "name": "StakingbalanceOf",
      "outputs": [
        {
          "internalType": "uint256",
          "name": "",
          "type": "uint256"
        }
      ],
      "stateMutability": "view",
      "type": "function"
    },
    {
      "inputs": [],
      "name": "amount",
      "outputs": [
        {
          "internalType": "uint256",
          "name": "",
          "type": "uint256"
        }
      ],
      "stateMutability": "view",
      "type": "function"
    },
    {
      "inputs": [
        {
          "internalType": "uint256",
          "name": "",
          "type": "uint256"
        }
      ],
      "name": "hasApproved",
      "outputs": [
        {
          "internalType": "address",
          "name": "",
          "type": "address"
        }
      ],
      "stateMutability": "view",
      "type": "function"
    },
    {
      "inputs": [
        {
          "internalType": "address",
          "name": "",
          "type": "address"
        }
      ],
      "name": "isApproved",
      "outputs": [
        {
          "internalType": "bool",
          "name": "",
          "type": "bool"
        }
      ],
      "stateMutability": "view",
      "type": "function"
    },
    {
      "inputs": [
        {
          "internalType": "address",
          "name": "",
          "type": "address"
        }
      ],
      "name": "isStaking",
      "outputs": [
        {
          "internalType": "bool",
          "name": "",
          "type": "bool"
        }
      ],
      "stateMutability": "view",
      "type": "function"
    },
    {
      "inputs": [],
      "name": "owner",
      "outputs": [
        {
          "internalType": "address",
          "name": "",
          "type": "address"
        }
      ],
      "stateMutability": "view",
      "type": "function"
    },
    {
      "inputs": [],
      "name": "reward",
      "outputs": [
        {
          "internalType": "uint256",
          "name": "",
          "type": "uint256"
        }
      ],
      "stateMutability": "view",
      "type": "function"
    },
    {
      "inputs": [
        {
          "internalType": "address",
          "name": "",
          "type": "address"
        }
      ],
      "name": "rewardBalance",
      "outputs": [
        {
          "internalType": "uint256",
          "name": "",
          "type": "uint256"
        }
      ],
      "stateMutability": "view",
      "type": "function"
    },
    {
      "inputs": [
        {
          "internalType": "address",
          "name": "",
          "type": "address"
        }
      ],
      "name": "stakeTime",
      "outputs": [
        {
          "internalType": "uint256",
          "name": "",
          "type": "uint256"
        }
      ],
      "stateMutability": "view",
      "type": "function"
    },
    {
      "inputs": [],
      "name": "time",
      "outputs": [
        {
          "internalType": "uint256",
          "name": "",
          "type": "uint256"
        }
      ],
      "stateMutability": "view",
      "type": "function"
    },
    {
      "inputs": [],
      "name": "token",
      "outputs": [
        {
          "internalType": "contract Token",
          "name": "",
          "type": "address"
        }
      ],
      "stateMutability": "view",
      "type": "function"
    },
    {
      "inputs": [],
      "name": "totalStake",
      "outputs": [
        {
          "internalType": "uint256",
          "name": "",
          "type": "uint256"
        }
      ],
      "stateMutability": "view",
      "type": "function"
    },
    {
      "inputs": [
        {
          "internalType": "uint256",
          "name": "_amount",
          "type": "uint256"
        }
      ],
      "name": "stake",
      "outputs": [],
      "stateMutability": "payable",
      "type": "function"
    },
    {
      "inputs": [
        {
          "internalType": "uint256",
          "name": "_amount",
          "type": "uint256"
        }
      ],
      "name": "unStake",
      "outputs": [],
      "stateMutability": "payable",
      "type": "function"
    },
    {
      "inputs": [
        {
          "internalType": "address",
          "name": "_user",
          "type": "address"
        }
      ],
      "name": "poolOneReward",
      "outputs": [
        {
          "internalType": "uint256",
          "name": "",
          "type": "uint256"
        }
      ],
      "stateMutability": "view",
      "type": "function"
    },
    {
      "inputs": [
        {
          "internalType": "address",
          "name": "_user",
          "type": "address"
        }
      ],
      "name": "poolTwoReward",
      "outputs": [
        {
          "internalType": "uint256",
          "name": "",
          "type": "uint256"
        }
      ],
      "stateMutability": "view",
      "type": "function"
    },
    {
      "inputs": [
        {
          "internalType": "address",
          "name": "_user",
          "type": "address"
        }
      ],
      "name": "poolThirdReward",
      "outputs": [
        {
          "internalType": "uint256",
          "name": "",
          "type": "uint256"
        }
      ],
      "stateMutability": "view",
      "type": "function"
    }
  ],
  "bytecode": "0x6080604052683635c9adc5dea00000600055603c600555620151806006556202a3006007553480156200003157600080fd5b506040516200177938038062001779833981810160405281019062000057919062000165565b80600f60006101000a81548173ffffffffffffffffffffffffffffffffffffffff021916908373ffffffffffffffffffffffffffffffffffffffff16021790555033600160006101000a81548173ffffffffffffffffffffffffffffffffffffffff021916908373ffffffffffffffffffffffffffffffffffffffff160217905550426002819055505062000197565b600080fd5b600073ffffffffffffffffffffffffffffffffffffffff82169050919050565b60006200011982620000ec565b9050919050565b60006200012d826200010c565b9050919050565b6200013f8162000120565b81146200014b57600080fd5b50565b6000815190506200015f8162000134565b92915050565b6000602082840312156200017e576200017d620000e7565b5b60006200018e848285016200014e565b91505092915050565b6115d280620001a76000396000f3fe6080604052600436106100fe5760003560e01c806376ec1b3511610095578063a694fc3a11610064578063a694fc3a14610376578063aa8c217c14610392578063b39336ab146103bd578063e73341ee146103fa578063fc0c546a14610437576100fe565b806376ec1b35146102a6578063848072c6146102e35780638b0e9f3f146103205780638da5cb5b1461034b576100fe565b80635d3eea91116100d15780635d3eea91146101d3578063673448dd146101ef57806367b40cf71461022c5780636f49712b14610269576100fe565b806316ada547146101035780632170e4721461012e578063228cb7331461016b5780634936725214610196575b600080fd5b34801561010f57600080fd5b50610118610462565b6040516101259190610fd1565b60405180910390f35b34801561013a57600080fd5b506101556004803603810190610150919061104f565b610468565b6040516101629190610fd1565b60405180910390f35b34801561017757600080fd5b50610180610480565b60405161018d9190610fd1565b60405180910390f35b3480156101a257600080fd5b506101bd60048036038101906101b891906110a8565b610486565b6040516101ca91906110e4565b60405180910390f35b6101ed60048036038101906101e891906110a8565b6104c5565b005b3480156101fb57600080fd5b506102166004803603810190610211919061104f565b6107e3565b604051610223919061111a565b60405180910390f35b34801561023857600080fd5b50610253600480360381019061024e919061104f565b610803565b6040516102609190610fd1565b60405180910390f35b34801561027557600080fd5b50610290600480360381019061028b919061104f565b61081b565b60405161029d919061111a565b60405180910390f35b3480156102b257600080fd5b506102cd60048036038101906102c8919061104f565b61083b565b6040516102da9190610fd1565b60405180910390f35b3480156102ef57600080fd5b5061030a6004803603810190610305919061104f565b610908565b6040516103179190610fd1565b60405180910390f35b34801561032c57600080fd5b50610335610920565b6040516103429190610fd1565b60405180910390f35b34801561035757600080fd5b50610360610926565b60405161036d91906110e4565b60405180910390f35b610390600480360381019061038b91906110a8565b61094c565b005b34801561039e57600080fd5b506103a7610e11565b6040516103b49190610fd1565b60405180910390f35b3480156103c957600080fd5b506103e460048036038101906103df919061104f565b610e17565b6040516103f19190610fd1565b60405180910390f35b34801561040657600080fd5b50610421600480360381019061041c919061104f565b610ee4565b60405161042e9190610fd1565b60405180910390f35b34801561044357600080fd5b5061044c610f92565b6040516104599190611194565b60405180910390f35b60025481565b600e6020528060005260406000206000915090505481565b60005481565b6009818154811061049657600080fd5b906000526020600020016000915054906101000a900473ffffffffffffffffffffffffffffffffffffffff1681565b6001600c60003373ffffffffffffffffffffffffffffffffffffffff1673ffffffffffffffffffffffffffffffffffffffff16815260200190815260200160002060006101000a81548160ff021916908315150217905561055b576040517f08c379a00000000000000000000000000000000000000000000000000000000081526004016105529061120c565b60405180910390fd5b6000600a60003373ffffffffffffffffffffffffffffffffffffffff1673ffffffffffffffffffffffffffffffffffffffff16815260200190815260200160002054116105dd576040517f08c379a00000000000000000000000000000000000000000000000000000000081526004016105d490611278565b60405180910390fd5b6000600a60003373ffffffffffffffffffffffffffffffffffffffff1673ffffffffffffffffffffffffffffffffffffffff16815260200190815260200160002054111561067e576001600c60003373ffffffffffffffffffffffffffffffffffffffff1673ffffffffffffffffffffffffffffffffffffffff16815260200190815260200160002060006101000a81548160ff0219169083151502179055505b6000600c60003373ffffffffffffffffffffffffffffffffffffffff1673ffffffffffffffffffffffffffffffffffffffff16815260200190815260200160002060006101000a81548160ff021916908315150217905550600f60009054906101000a900473ffffffffffffffffffffffffffffffffffffffff1673ffffffffffffffffffffffffffffffffffffffff1663a9059cbb33836040518363ffffffff1660e01b8152600401610733929190611298565b6020604051808303816000875af1158015610752573d6000803e3d6000fd5b505050506040513d601f19601f8201168201806040525081019061077691906112ed565b506004546003600082825461078b9190611349565b925050819055503373ffffffffffffffffffffffffffffffffffffffff167fb24546d975e2628748efc9aced80665e0fad66272033e5c0ea25fd3afac99795826040516107d89190610fd1565b60405180910390a250565b600d6020528060005260406000206000915054906101000a900460ff1681565b600b6020528060005260406000206000915090505481565b600c6020528060005260406000206000915054906101000a900460ff1681565b60008061084783610e17565b905060006064905060006032905060008282600354610866919061137d565b6108709190611406565b9050600083600354600a60008a73ffffffffffffffffffffffffffffffffffffffff1673ffffffffffffffffffffffffffffffffffffffff168152602001908152602001600020546108c29190611406565b6108cc919061137d565b905060008482846108dd919061137d565b6108e79190611406565b9050600086826108f79190611437565b905080975050505050505050919050565b600a6020528060005260406000206000915090505481565b60035481565b600160009054906101000a900473ffffffffffffffffffffffffffffffffffffffff1681565b6000811161098f576040517f08c379a0000000000000000000000000000000000000000000000000000000008152600401610986906114d9565b60405180910390fd5b600073ffffffffffffffffffffffffffffffffffffffff163373ffffffffffffffffffffffffffffffffffffffff1614156109ff576040517f08c379a00000000000000000000000000000000000000000000000000000000081526004016109f690611545565b60405180910390fd5b6000600d60003373ffffffffffffffffffffffffffffffffffffffff1673ffffffffffffffffffffffffffffffffffffffff16815260200190815260200160002060006101000a81548160ff021916908315150217905515610bb857600f60009054906101000a900473ffffffffffffffffffffffffffffffffffffffff1673ffffffffffffffffffffffffffffffffffffffff1663095ea7b330836040518363ffffffff1660e01b8152600401610ab8929190611298565b6020604051808303816000875af1158015610ad7573d6000803e3d6000fd5b505050506040513d601f19601f82011682018060405250810190610afb91906112ed565b506009339080600181540180825580915050600190039060005260206000200160009091909190916101000a81548173ffffffffffffffffffffffffffffffffffffffff021916908373ffffffffffffffffffffffffffffffffffffffff1602179055506001600d60003373ffffffffffffffffffffffffffffffffffffffff1673ffffffffffffffffffffffffffffffffffffffff16815260200190815260200160002060006101000a81548160ff0219169083151502179055505b600f60009054906101000a900473ffffffffffffffffffffffffffffffffffffffff1673ffffffffffffffffffffffffffffffffffffffff166323b872dd3330846040518463ffffffff1660e01b8152600401610c1793929190611565565b6020604051808303816000875af1158015610c36573d6000803e3d6000fd5b505050506040513d601f19601f82011682018060405250810190610c5a91906112ed565b506001600d60003373ffffffffffffffffffffffffffffffffffffffff1673ffffffffffffffffffffffffffffffffffffffff16815260200190815260200160002060006101000a81548160ff02191690831515021790555080600a60003373ffffffffffffffffffffffffffffffffffffffff1673ffffffffffffffffffffffffffffffffffffffff1681526020019081526020016000206000828254610d029190611437565b925050819055506001600c60003373ffffffffffffffffffffffffffffffffffffffff1673ffffffffffffffffffffffffffffffffffffffff16815260200190815260200160002060006101000a81548160ff02191690831515021790555042600e60003373ffffffffffffffffffffffffffffffffffffffff1673ffffffffffffffffffffffffffffffffffffffff1681526020019081526020016000208190555060045460036000828254610db99190611437565b925050819055503373ffffffffffffffffffffffffffffffffffffffff167febedb8b3c678666e7f36970bc8f57abf6d8fa2e828c0da91ea5b75bf68ed101a82604051610e069190610fd1565b60405180910390a250565b60045481565b600080610e2383610ee4565b90506000606490506000601e905060008282600354610e42919061137d565b610e4c9190611406565b9050600083600354600a60008a73ffffffffffffffffffffffffffffffffffffffff1673ffffffffffffffffffffffffffffffffffffffff16815260200190815260200160002054610e9e9190611406565b610ea8919061137d565b90506000848284610eb9919061137d565b610ec39190611406565b905060008682610ed39190611437565b905080975050505050505050919050565b6000806064905060006014905060008282600354610f02919061137d565b610f0c9190611406565b9050600083600354600a60008973ffffffffffffffffffffffffffffffffffffffff1673ffffffffffffffffffffffffffffffffffffffff16815260200190815260200160002054610f5e9190611406565b610f68919061137d565b90506000848284610f79919061137d565b610f839190611406565b90508095505050505050919050565b600f60009054906101000a900473ffffffffffffffffffffffffffffffffffffffff1681565b6000819050919050565b610fcb81610fb8565b82525050565b6000602082019050610fe66000830184610fc2565b92915050565b600080fd5b600073ffffffffffffffffffffffffffffffffffffffff82169050919050565b600061101c82610ff1565b9050919050565b61102c81611011565b811461103757600080fd5b50565b60008135905061104981611023565b92915050565b60006020828403121561106557611064610fec565b5b60006110738482850161103a565b91505092915050565b61108581610fb8565b811461109057600080fd5b50565b6000813590506110a28161107c565b92915050565b6000602082840312156110be576110bd610fec565b5b60006110cc84828501611093565b91505092915050565b6110de81611011565b82525050565b60006020820190506110f960008301846110d5565b92915050565b60008115159050919050565b611114816110ff565b82525050565b600060208201905061112f600083018461110b565b92915050565b6000819050919050565b600061115a61115561115084610ff1565b611135565b610ff1565b9050919050565b600061116c8261113f565b9050919050565b600061117e82611161565b9050919050565b61118e81611173565b82525050565b60006020820190506111a96000830184611185565b92915050565b600082825260208201905092915050565b7f596f752077697368000000000000000000000000000000000000000000000000600082015250565b60006111f66008836111af565b9150611201826111c0565b602082019050919050565b60006020820190508181036000830152611225816111e9565b9050919050565b7f4e6f20746f6b656e7320746f20756e7374616b65000000000000000000000000600082015250565b60006112626014836111af565b915061126d8261122c565b602082019050919050565b6000602082019050818103600083015261129181611255565b9050919050565b60006040820190506112ad60008301856110d5565b6112ba6020830184610fc2565b9392505050565b6112ca816110ff565b81146112d557600080fd5b50565b6000815190506112e7816112c1565b92915050565b60006020828403121561130357611302610fec565b5b6000611311848285016112d8565b91505092915050565b7f4e487b7100000000000000000000000000000000000000000000000000000000600052601160045260246000fd5b600061135482610fb8565b915061135f83610fb8565b9250828210156113725761137161131a565b5b828203905092915050565b600061138882610fb8565b915061139383610fb8565b9250817fffffffffffffffffffffffffffffffffffffffffffffffffffffffffffffffff04831182151516156113cc576113cb61131a565b5b828202905092915050565b7f4e487b7100000000000000000000000000000000000000000000000000000000600052601260045260246000fd5b600061141182610fb8565b915061141c83610fb8565b92508261142c5761142b6113d7565b5b828204905092915050565b600061144282610fb8565b915061144d83610fb8565b9250827fffffffffffffffffffffffffffffffffffffffffffffffffffffffffffffffff038211156114825761148161131a565b5b828201905092915050565b7f616d6f756e742073686f756c6420626520626967676572207468616e20300000600082015250565b60006114c3601e836111af565b91506114ce8261148d565b602082019050919050565b600060208201905081810360008301526114f2816114b6565b9050919050565b7f42616e6b2063616e6e6f74206465706f73697420746f20706f6f6c0000000000600082015250565b600061152f601b836111af565b915061153a826114f9565b602082019050919050565b6000602082019050818103600083015261155e81611522565b9050919050565b600060608201905061157a60008301866110d5565b61158760208301856110d5565b6115946040830184610fc2565b94935050505056fea2646970667358221220e9f8d196f03ac5a809a790f6aadaeb44279a04e39e80dbd434cb3e4295715dfb64736f6c634300080a0033",
  "immutableReferences": {},
  "source": "// SPDX-License-Identifier: MIT\r\n\r\npragma solidity ^0.8.10;\r\n\r\nimport \"./Token.sol\";\r\n\r\n/* things we need to build the staking system:\r\n1. Token contract - import from openzeppelin,\r\n2. Mapping to track the stakeholders, rewards, stakes (staking amount)\r\n3. A reward system\r\n*/\r\n\r\ncontract BankSmartContract {\r\n    uint256 public reward = 1000 * 1e18; // 1000 in rewards - farm supply\r\n    address public owner;\r\n    uint256 public time;\r\n    uint256 public totalStake;\r\n    uint256 public amount;\r\n    uint256 private duration = 60 seconds;\r\n    uint256 private poolOneTime = 86400 seconds; // Reward can be claimed after 1 day.\r\n    uint256 private pooltwoTime = 172800 seconds; // Reward can be claimed after 2 days.\r\n    uint256 private totalStakedTime;\r\n\r\n    address[] public hasApproved;\r\n\r\n    //Balances of the users -\r\n    mapping(address => uint256) public StakingbalanceOf;\r\n    mapping(address => uint256) public rewardBalance;\r\n    mapping(address => bool) public isStaking;\r\n    //mapping(address => bool) approved;\r\n    //address[] public hasApproved;\r\n    mapping(address => bool) public isApproved;\r\n    mapping(address => uint256) public stakeTime;\r\n\r\n    event Stake(address indexed sender, uint256 amount);\r\n    event UnStake(address indexed sender, uint256 amount);\r\n    Token public token;\r\n\r\n    constructor(Token _token) {\r\n        token = _token;\r\n        owner = msg.sender;\r\n        time = block.timestamp;\r\n        //totalStake += amount;\r\n    }\r\n\r\n    function stake(uint256 _amount) public payable {\r\n        require(_amount > 0, \"amount should be bigger than 0\");\r\n        require(msg.sender != address(0), \"Bank cannot deposit to pool\");\r\n\r\n        //this can be used but wont be neccessary, uncomment if you wish to use.\r\n        if (isApproved[msg.sender] = false) {\r\n            token.approve(address(this), _amount);\r\n            hasApproved.push(msg.sender);\r\n            isApproved[msg.sender] = true;\r\n        }\r\n\r\n        token.transferFrom(msg.sender, address(this), _amount);\r\n\r\n        //update the user's balance\r\n        isApproved[msg.sender] = true;\r\n        StakingbalanceOf[msg.sender] += _amount;\r\n        isStaking[msg.sender] = true;\r\n        stakeTime[msg.sender] = block.timestamp;\r\n        totalStake += amount;\r\n\r\n        //emit to notify the change onto blockchain\r\n        emit Stake(msg.sender, _amount);\r\n    }\r\n\r\n    function unStake(uint256 _amount) public payable {\r\n        require(isStaking[msg.sender] = true, \"You wish\");\r\n        require(StakingbalanceOf[msg.sender] > 0, \"No tokens to unstake\");\r\n\r\n        if (StakingbalanceOf[msg.sender] > 0) {\r\n            isStaking[msg.sender] = true;\r\n        }\r\n        isStaking[msg.sender] = false;\r\n        token.transfer(msg.sender, _amount);\r\n        totalStake -= amount;\r\n\r\n        //StakingbalanceOf[msg.sender] += rewardOne;\r\n\r\n        emit UnStake(msg.sender, _amount);\r\n    }\r\n\r\n    //internal view to public for testing\r\n    function poolOneReward(address _user) public view returns (uint256) {\r\n        //pool 1 - Time 1 day\r\n        uint256 percentage = 100;\r\n        uint256 poolWeight = 20;\r\n        uint256 poolOneSupply = ((totalStake) * (poolWeight)) / (percentage);\r\n        uint256 userAllocation = (StakingbalanceOf[_user] / (totalStake)) *\r\n            (percentage);\r\n        uint256 rewardOne = (poolOneSupply * (userAllocation)) / (percentage);\r\n        //rewardOnePool[msg.sender] += rewardOne;\r\n        return rewardOne;\r\n    }\r\n\r\n    function poolTwoReward(address _user) public view returns (uint256) {\r\n        //pool 2 - Time 2 day\r\n        uint256 previousReward = poolOneReward(_user);\r\n        uint256 percentage = 100;\r\n        uint256 poolWeight = 30;\r\n        uint256 poolTwoSupply = ((totalStake) * (poolWeight)) / (percentage);\r\n        uint256 userAllocation = (StakingbalanceOf[_user] / (totalStake)) *\r\n            (percentage);\r\n        uint256 rewardTwo = (poolTwoSupply * (userAllocation)) / (percentage);\r\n        uint256 totalReward = rewardTwo + previousReward;\r\n        return totalReward;\r\n    }\r\n\r\n    function poolThirdReward(address _user) public view returns (uint256) {\r\n        //pool 3 - Time 3 day\r\n        uint256 previousReward = poolTwoReward(_user);\r\n        uint256 percentage = 100;\r\n        uint256 poolWeight = 50;\r\n        uint256 poolThirdSupply = ((totalStake) * (poolWeight)) / (percentage);\r\n        uint256 userAllocation = (StakingbalanceOf[_user] / (totalStake)) *\r\n            (percentage);\r\n        uint256 rewardThird = (poolThirdSupply * (userAllocation)) /\r\n            (percentage);\r\n        uint256 totalReward = rewardThird + previousReward;\r\n        return totalReward;\r\n    }\r\n}\r\n",
  "sourcePath": "/mnt/c/pr0/Bank-Smart-Contract/src/contracts/BankSmartContract.sol",
  "compiler": {
    "name": "solc",
    "version": "0.8.10+commit.fc410830.Emscripten.clang"
  },
  "schemaVersion": "3.4.3",
  "updatedAt": "2022-02-28T18:51:48.080Z",
  "devdoc": {
    "kind": "dev",
    "methods": {},
    "version": 1
  },
  "userdoc": {
    "kind": "user",
    "methods": {},
    "version": 1
  }
}