{
  "contractName": "BankSmartContract",
  "abi": [
    {
      "inputs": [
        {
          "internalType": "contract Token",
          "name": "_token",
          "type": "address"
        }
      ],
      "stateMutability": "nonpayable",
      "type": "constructor"
    },
    {
      "anonymous": false,
      "inputs": [
        {
          "indexed": true,
          "internalType": "address",
          "name": "sender",
          "type": "address"
        },
        {
          "indexed": false,
          "internalType": "uint256",
          "name": "amount",
          "type": "uint256"
        }
      ],
      "name": "Stake",
      "type": "event"
    },
    {
      "anonymous": false,
      "inputs": [
        {
          "indexed": true,
          "internalType": "address",
          "name": "sender",
          "type": "address"
        },
        {
          "indexed": false,
          "internalType": "uint256",
          "name": "amount",
          "type": "uint256"
        }
      ],
      "name": "UnStake",
      "type": "event"
    },
    {
      "inputs": [],
      "name": "amount",
      "outputs": [
        {
          "internalType": "uint256",
          "name": "",
          "type": "uint256"
        }
      ],
      "stateMutability": "view",
      "type": "function"
    },
    {
      "inputs": [
        {
          "internalType": "address",
          "name": "",
          "type": "address"
        }
      ],
      "name": "isStaking",
      "outputs": [
        {
          "internalType": "bool",
          "name": "",
          "type": "bool"
        }
      ],
      "stateMutability": "view",
      "type": "function"
    },
    {
      "inputs": [],
      "name": "lockPeriod",
      "outputs": [
        {
          "internalType": "uint256",
          "name": "",
          "type": "uint256"
        }
      ],
      "stateMutability": "view",
      "type": "function"
    },
    {
      "inputs": [],
      "name": "owner",
      "outputs": [
        {
          "internalType": "address",
          "name": "",
          "type": "address"
        }
      ],
      "stateMutability": "view",
      "type": "function"
    },
    {
      "inputs": [
        {
          "internalType": "address",
          "name": "",
          "type": "address"
        }
      ],
      "name": "rewardBalance",
      "outputs": [
        {
          "internalType": "uint256",
          "name": "",
          "type": "uint256"
        }
      ],
      "stateMutability": "view",
      "type": "function"
    },
    {
      "inputs": [
        {
          "internalType": "address",
          "name": "",
          "type": "address"
        }
      ],
      "name": "stakeTime",
      "outputs": [
        {
          "internalType": "uint256",
          "name": "",
          "type": "uint256"
        }
      ],
      "stateMutability": "view",
      "type": "function"
    },
    {
      "inputs": [
        {
          "internalType": "uint256",
          "name": "",
          "type": "uint256"
        }
      ],
      "name": "stakers",
      "outputs": [
        {
          "internalType": "address",
          "name": "",
          "type": "address"
        }
      ],
      "stateMutability": "view",
      "type": "function"
    },
    {
      "inputs": [
        {
          "internalType": "address",
          "name": "",
          "type": "address"
        }
      ],
      "name": "stakingBalanceOf",
      "outputs": [
        {
          "internalType": "uint256",
          "name": "",
          "type": "uint256"
        }
      ],
      "stateMutability": "view",
      "type": "function"
    },
    {
      "inputs": [],
      "name": "token",
      "outputs": [
        {
          "internalType": "contract Token",
          "name": "",
          "type": "address"
        }
      ],
      "stateMutability": "view",
      "type": "function"
    },
    {
      "inputs": [],
      "name": "totalStakeBalance",
      "outputs": [
        {
          "internalType": "uint256",
          "name": "",
          "type": "uint256"
        }
      ],
      "stateMutability": "view",
      "type": "function"
    },
    {
      "inputs": [
        {
          "internalType": "uint256",
          "name": "_amount",
          "type": "uint256"
        }
      ],
      "name": "stake",
      "outputs": [],
      "stateMutability": "payable",
      "type": "function"
    },
    {
      "inputs": [],
      "name": "unStake",
      "outputs": [],
      "stateMutability": "payable",
      "type": "function"
    }
  ],
  "bytecode": "0x608060405269021e19e0c9bab2400000600055603c600555620151806006556202a3006007556203f4806008553480156200003957600080fd5b5060405162001a4638038062001a4683398181016040528101906200005f91906200017c565b80601060006101000a81548173ffffffffffffffffffffffffffffffffffffffff021916908373ffffffffffffffffffffffffffffffffffffffff16021790555033600160006101000a81548173ffffffffffffffffffffffffffffffffffffffff021916908373ffffffffffffffffffffffffffffffffffffffff16021790555060055442620000f19190620001e7565b6002819055505062000244565b600080fd5b600073ffffffffffffffffffffffffffffffffffffffff82169050919050565b6000620001308262000103565b9050919050565b6000620001448262000123565b9050919050565b620001568162000137565b81146200016257600080fd5b50565b60008151905062000176816200014b565b92915050565b600060208284031215620001955762000194620000fe565b5b6000620001a58482850162000165565b91505092915050565b6000819050919050565b7f4e487b7100000000000000000000000000000000000000000000000000000000600052601160045260246000fd5b6000620001f482620001ae565b91506200020183620001ae565b9250827fffffffffffffffffffffffffffffffffffffffffffffffffffffffffffffffff03821115620002395762000238620001b8565b5b828201905092915050565b6117f280620002546000396000f3fe6080604052600436106100a75760003560e01c806373cf575a1161006457806373cf575a146101f65780638da5cb5b14610200578063a694fc3a1461022b578063aa8c217c14610247578063fc0c546a14610272578063fd5e6dd11461029d576100a7565b80632170e472146100ac57806334949cc1146100e95780633fd8b02f1461011457806362e3efdd1461013f57806367b40cf71461017c5780636f49712b146101b9575b600080fd5b3480156100b857600080fd5b506100d360048036038101906100ce9190611136565b6102da565b6040516100e0919061117c565b60405180910390f35b3480156100f557600080fd5b506100fe6102f2565b60405161010b919061117c565b60405180910390f35b34801561012057600080fd5b506101296102f8565b604051610136919061117c565b60405180910390f35b34801561014b57600080fd5b5061016660048036038101906101619190611136565b6102fe565b604051610173919061117c565b60405180910390f35b34801561018857600080fd5b506101a3600480360381019061019e9190611136565b610316565b6040516101b0919061117c565b60405180910390f35b3480156101c557600080fd5b506101e060048036038101906101db9190611136565b61032e565b6040516101ed91906111b2565b60405180910390f35b6101fe61034e565b005b34801561020c57600080fd5b506102156109ed565b60405161022291906111dc565b60405180910390f35b61024560048036038101906102409190611223565b610a13565b005b34801561025357600080fd5b5061025c610e1a565b604051610269919061117c565b60405180910390f35b34801561027e57600080fd5b50610287610e20565b60405161029491906112af565b60405180910390f35b3480156102a957600080fd5b506102c460048036038101906102bf9190611223565b610e46565b6040516102d191906111dc565b60405180910390f35b600f6020528060005260406000206000915090505481565b60035481565b60025481565b600a6020528060005260406000206000915090505481565b600b6020528060005260406000206000915090505481565b600c6020528060005260406000206000915054906101000a900460ff1681565b6000600a60003373ffffffffffffffffffffffffffffffffffffffff1673ffffffffffffffffffffffffffffffffffffffff1681526020019081526020016000205490506001600c60003373ffffffffffffffffffffffffffffffffffffffff1673ffffffffffffffffffffffffffffffffffffffff16815260200190815260200160002060006101000a81548160ff0219169083151502179055610428576040517f08c379a000000000000000000000000000000000000000000000000000000000815260040161041f90611327565b60405180910390fd5b8060001061046b576040517f08c379a000000000000000000000000000000000000000000000000000000000815260040161046290611393565b60405180910390fd5b600080600f60003373ffffffffffffffffffffffffffffffffffffffff1673ffffffffffffffffffffffffffffffffffffffff16815260200190815260200160002054426104b991906113e2565b60098190555060065460095410610678576104d333610e85565b915081836104e19190611416565b9050601060009054906101000a900473ffffffffffffffffffffffffffffffffffffffff1673ffffffffffffffffffffffffffffffffffffffff1663a9059cbb33836040518363ffffffff1660e01b815260040161054092919061146c565b6020604051808303816000875af115801561055f573d6000803e3d6000fd5b505050506040513d601f19601f8201168201806040525081019061058391906114c1565b508160008082825461059591906113e2565b9250508190555082600360008282546105ae91906113e2565b925050819055506000600c60003373ffffffffffffffffffffffffffffffffffffffff1673ffffffffffffffffffffffffffffffffffffffff16815260200190815260200160002060006101000a81548160ff021916908315150217905550600e6000815480929190610620906114ee565b91905055503373ffffffffffffffffffffffffffffffffffffffff167fb24546d975e2628748efc9aced80665e0fad66272033e5c0ea25fd3afac997958260405161066b919061117c565b60405180910390a26109e8565b600754600954106108315761068c33610f39565b9150818361069a9190611416565b9050601060009054906101000a900473ffffffffffffffffffffffffffffffffffffffff1673ffffffffffffffffffffffffffffffffffffffff1663a9059cbb33836040518363ffffffff1660e01b81526004016106f992919061146c565b6020604051808303816000875af1158015610718573d6000803e3d6000fd5b505050506040513d601f19601f8201168201806040525081019061073c91906114c1565b508160008082825461074e91906113e2565b92505081905550826003600082825461076791906113e2565b925050819055506000600c60003373ffffffffffffffffffffffffffffffffffffffff1673ffffffffffffffffffffffffffffffffffffffff16815260200190815260200160002060006101000a81548160ff021916908315150217905550600e60008154809291906107d9906114ee565b91905055503373ffffffffffffffffffffffffffffffffffffffff167fb24546d975e2628748efc9aced80665e0fad66272033e5c0ea25fd3afac9979582604051610824919061117c565b60405180910390a26109e7565b600754600954106109e65761084533611006565b915081836108539190611416565b9050601060009054906101000a900473ffffffffffffffffffffffffffffffffffffffff1673ffffffffffffffffffffffffffffffffffffffff1663a9059cbb33836040518363ffffffff1660e01b81526004016108b292919061146c565b6020604051808303816000875af11580156108d1573d6000803e3d6000fd5b505050506040513d601f19601f820116820180604052508101906108f591906114c1565b508160008082825461090791906113e2565b92505081905550826003600082825461092091906113e2565b925050819055506000600c60003373ffffffffffffffffffffffffffffffffffffffff1673ffffffffffffffffffffffffffffffffffffffff16815260200190815260200160002060006101000a81548160ff021916908315150217905550600e6000815480929190610992906114ee565b91905055503373ffffffffffffffffffffffffffffffffffffffff167fb24546d975e2628748efc9aced80665e0fad66272033e5c0ea25fd3afac99795826040516109dd919061117c565b60405180910390a25b5b5b505050565b600160009054906101000a900473ffffffffffffffffffffffffffffffffffffffff1681565b803360008211610a58576040517f08c379a0000000000000000000000000000000000000000000000000000000008152600401610a4f90611564565b60405180910390fd5b600073ffffffffffffffffffffffffffffffffffffffff168173ffffffffffffffffffffffffffffffffffffffff161415610ac8576040517f08c379a0000000000000000000000000000000000000000000000000000000008152600401610abf906115d0565b60405180910390fd5b426002541015610b0d576040517f08c379a0000000000000000000000000000000000000000000000000000000008152600401610b0490611662565b60405180910390fd5b601060009054906101000a900473ffffffffffffffffffffffffffffffffffffffff1673ffffffffffffffffffffffffffffffffffffffff166323b872dd3330866040518463ffffffff1660e01b8152600401610b6c93929190611682565b6020604051808303816000875af1158015610b8b573d6000803e3d6000fd5b505050506040513d601f19601f82011682018060405250810190610baf91906114c1565b50600c60003373ffffffffffffffffffffffffffffffffffffffff1673ffffffffffffffffffffffffffffffffffffffff16815260200190815260200160002060009054906101000a900460ff16610c7d57600d339080600181540180825580915050600190039060005260206000200160009091909190916101000a81548173ffffffffffffffffffffffffffffffffffffffff021916908373ffffffffffffffffffffffffffffffffffffffff160217905550600e6000815480929190610c77906116b9565b91905055505b6001600c60003373ffffffffffffffffffffffffffffffffffffffff1673ffffffffffffffffffffffffffffffffffffffff16815260200190815260200160002060006101000a81548160ff02191690831515021790555082600a60003373ffffffffffffffffffffffffffffffffffffffff1673ffffffffffffffffffffffffffffffffffffffff1681526020019081526020016000206000828254610d249190611416565b9250508190555042600f60003373ffffffffffffffffffffffffffffffffffffffff1673ffffffffffffffffffffffffffffffffffffffff16815260200190815260200160002081905550600a60003373ffffffffffffffffffffffffffffffffffffffff1673ffffffffffffffffffffffffffffffffffffffff1681526020019081526020016000205460036000828254610dc09190611416565b925050819055503373ffffffffffffffffffffffffffffffffffffffff167febedb8b3c678666e7f36970bc8f57abf6d8fa2e828c0da91ea5b75bf68ed101a84604051610e0d919061117c565b60405180910390a2505050565b60045481565b601060009054906101000a900473ffffffffffffffffffffffffffffffffffffffff1681565b600d8181548110610e5657600080fd5b906000526020600020016000915054906101000a900473ffffffffffffffffffffffffffffffffffffffff1681565b6000806064905060006014905060008282600054610ea39190611702565b610ead919061178b565b9050600083600354600a60008973ffffffffffffffffffffffffffffffffffffffff1673ffffffffffffffffffffffffffffffffffffffff16815260200190815260200160002054610eff919061178b565b610f099190611702565b90506000848284610f1a9190611702565b610f24919061178b565b90506000819050809650505050505050919050565b600080610f4583610e85565b90506000606490506000601e905060008282600054610f649190611702565b610f6e919061178b565b9050600083600354600a60008a73ffffffffffffffffffffffffffffffffffffffff1673ffffffffffffffffffffffffffffffffffffffff16815260200190815260200160002054610fc0919061178b565b610fca9190611702565b90506000848284610fdb9190611702565b610fe5919061178b565b905060008682610ff59190611416565b905080975050505050505050919050565b60008061101283610f39565b9050600060649050600060329050600082826000546110319190611702565b61103b919061178b565b9050600083600354600a60008a73ffffffffffffffffffffffffffffffffffffffff1673ffffffffffffffffffffffffffffffffffffffff1681526020019081526020016000205461108d919061178b565b6110979190611702565b905060008482846110a89190611702565b6110b2919061178b565b9050600086826110c29190611416565b905080975050505050505050919050565b600080fd5b600073ffffffffffffffffffffffffffffffffffffffff82169050919050565b6000611103826110d8565b9050919050565b611113816110f8565b811461111e57600080fd5b50565b6000813590506111308161110a565b92915050565b60006020828403121561114c5761114b6110d3565b5b600061115a84828501611121565b91505092915050565b6000819050919050565b61117681611163565b82525050565b6000602082019050611191600083018461116d565b92915050565b60008115159050919050565b6111ac81611197565b82525050565b60006020820190506111c760008301846111a3565b92915050565b6111d6816110f8565b82525050565b60006020820190506111f160008301846111cd565b92915050565b61120081611163565b811461120b57600080fd5b50565b60008135905061121d816111f7565b92915050565b600060208284031215611239576112386110d3565b5b60006112478482850161120e565b91505092915050565b6000819050919050565b600061127561127061126b846110d8565b611250565b6110d8565b9050919050565b60006112878261125a565b9050919050565b60006112998261127c565b9050919050565b6112a98161128e565b82525050565b60006020820190506112c460008301846112a0565b92915050565b600082825260208201905092915050565b7f596f752077697368000000000000000000000000000000000000000000000000600082015250565b60006113116008836112ca565b915061131c826112db565b602082019050919050565b6000602082019050818103600083015261134081611304565b9050919050565b7f4e6f20746f6b656e7320746f20756e7374616b65000000000000000000000000600082015250565b600061137d6014836112ca565b915061138882611347565b602082019050919050565b600060208201905081810360008301526113ac81611370565b9050919050565b7f4e487b7100000000000000000000000000000000000000000000000000000000600052601160045260246000fd5b60006113ed82611163565b91506113f883611163565b92508282101561140b5761140a6113b3565b5b828203905092915050565b600061142182611163565b915061142c83611163565b9250827fffffffffffffffffffffffffffffffffffffffffffffffffffffffffffffffff03821115611461576114606113b3565b5b828201905092915050565b600060408201905061148160008301856111cd565b61148e602083018461116d565b9392505050565b61149e81611197565b81146114a957600080fd5b50565b6000815190506114bb81611495565b92915050565b6000602082840312156114d7576114d66110d3565b5b60006114e5848285016114ac565b91505092915050565b60006114f982611163565b9150600082141561150d5761150c6113b3565b5b600182039050919050565b7f616d6f756e742073686f756c6420626520626967676572207468616e20300000600082015250565b600061154e601e836112ca565b915061155982611518565b602082019050919050565b6000602082019050818103600083015261157d81611541565b9050919050565b7f42616e6b2063616e6e6f74206465706f73697420746f20706f6f6c0000000000600082015250565b60006115ba601b836112ca565b91506115c582611584565b602082019050919050565b600060208201905081810360008301526115e9816115ad565b9050919050565b7f4e6f206d6f7265206465706f73697420616c6c6f77656420666f72203630207360008201527f65636f6e64730000000000000000000000000000000000000000000000000000602082015250565b600061164c6026836112ca565b9150611657826115f0565b604082019050919050565b6000602082019050818103600083015261167b8161163f565b9050919050565b600060608201905061169760008301866111cd565b6116a460208301856111cd565b6116b1604083018461116d565b949350505050565b60006116c482611163565b91507fffffffffffffffffffffffffffffffffffffffffffffffffffffffffffffffff8214156116f7576116f66113b3565b5b600182019050919050565b600061170d82611163565b915061171883611163565b9250817fffffffffffffffffffffffffffffffffffffffffffffffffffffffffffffffff0483118215151615611751576117506113b3565b5b828202905092915050565b7f4e487b7100000000000000000000000000000000000000000000000000000000600052601260045260246000fd5b600061179682611163565b91506117a183611163565b9250826117b1576117b061175c565b5b82820490509291505056fea264697066735822122005475927ba0be4c5fece44bb2f5ba70391b44500a6ddafc98d1d0370ef41368764736f6c634300080a0033",
  "immutableReferences": {},
  "source": "// SPDX-License-Identifier: MIT\r\n\r\npragma solidity ^0.8.10;\r\n\r\nimport \"./Token.sol\";\r\n\r\ncontract BankSmartContract {\r\n    uint256 totalFarmSupply = 10000 * 1e18; // 10,000 in rewards - farm supply\r\n    address public owner;\r\n    uint256 public lockPeriod;\r\n    uint256 public totalStakeBalance;\r\n    uint256 public amount;\r\n\r\n    uint256 private duration = 60 seconds; // No deposit/withdraw for 60 seconds after the staking.\r\n    uint256 private poolOneTime = 86400 seconds; // lock period for pool one.\r\n    uint256 private poolTwoTime = 172800 seconds; // lock period for pool two.\r\n    uint256 private poolThirdTime = 259200 seconds; // lock period for pool three;\r\n    uint256 private totalStakedTime;\r\n\r\n    mapping(address => uint256) public stakingBalanceOf;\r\n    mapping(address => uint256) public rewardBalance;\r\n    mapping(address => bool) public isStaking;\r\n    //mapping(address => bool) hasStaked;\r\n    address[] public stakers;\r\n    uint256 stakerCount;\r\n    mapping(address => uint256) public stakeTime; //start time\r\n\r\n    //Approved mapping and array, refer to line 58.\r\n    /*mapping(address => bool) approved;\r\n    mapping(address => bool) public isApproved;\r\n    address[] public hasApproved;*/\r\n\r\n    event Stake(address indexed sender, uint256 amount);\r\n    event UnStake(address indexed sender, uint256 amount);\r\n    Token public token;\r\n\r\n    constructor(Token _token) {\r\n        token = _token;\r\n        owner = msg.sender;\r\n        lockPeriod = block.timestamp + duration;\r\n    }\r\n\r\n    modifier checkBalance(uint256 _amount, address _address) {\r\n        require(_amount > 0, \"amount should be bigger than 0\");\r\n        require(_address != address(0), \"Bank cannot deposit to pool\");\r\n        _;\r\n    }\r\n\r\n    function stake(uint256 _amount)\r\n        public\r\n        payable\r\n        checkBalance(_amount, msg.sender)\r\n    {\r\n        //require(msg.sender != address(0), \"Bank cannot deposit to pool\");\r\n        require(\r\n            lockPeriod >= block.timestamp,\r\n            \"No more deposit allowed for 60 seconds\"\r\n        );\r\n\r\n        //this can be used but wont be neccessary, uncomment if you wish to use. refer to line 35.\r\n        /*if (isApproved[msg.sender] = false) {\r\n            token.approve(address(this), _amount);\r\n            hasApproved.push(msg.sender);\r\n            isApproved[msg.sender] = true;\r\n        }*/\r\n\r\n        token.transferFrom(msg.sender, address(this), _amount);\r\n\r\n        //update the user's balance\r\n        if (!isStaking[msg.sender]) {\r\n            stakers.push(msg.sender);\r\n            stakerCount++;\r\n        }\r\n        isStaking[msg.sender] = true;\r\n        stakingBalanceOf[msg.sender] += _amount;\r\n        stakeTime[msg.sender] = block.timestamp;\r\n        totalStakeBalance += stakingBalanceOf[msg.sender];\r\n\r\n        emit Stake(msg.sender, _amount);\r\n    }\r\n\r\n    function unStake() public payable {\r\n        uint256 balance = stakingBalanceOf[msg.sender];\r\n        require(isStaking[msg.sender] = true, \"You wish\");\r\n        require(0 < balance, \"No tokens to unstake\");\r\n        uint256 rewards;\r\n        uint256 totalAmount;\r\n\r\n        totalStakedTime = block.timestamp - stakeTime[msg.sender];\r\n\r\n        if (totalStakedTime >= poolOneTime) {\r\n            rewards = poolOneReward(msg.sender);\r\n            totalAmount = balance + rewards;\r\n            token.transfer(msg.sender, totalAmount);\r\n            totalFarmSupply -= rewards;\r\n            totalStakeBalance -= balance;\r\n            isStaking[msg.sender] = false;\r\n            stakerCount--;\r\n\r\n            emit UnStake(msg.sender, totalAmount);\r\n        } else if (totalStakedTime >= poolTwoTime) {\r\n            rewards = poolTwoReward(msg.sender);\r\n            totalAmount = balance + rewards;\r\n            token.transfer(msg.sender, totalAmount);\r\n            totalFarmSupply -= rewards;\r\n            totalStakeBalance -= balance;\r\n            isStaking[msg.sender] = false;\r\n            stakerCount--;\r\n\r\n            emit UnStake(msg.sender, totalAmount);\r\n        } else if (totalStakedTime >= poolTwoTime) {\r\n            rewards = poolThirdReward(msg.sender);\r\n            totalAmount = balance + rewards;\r\n            token.transfer(msg.sender, totalAmount);\r\n            totalFarmSupply -= rewards;\r\n            totalStakeBalance -= balance;\r\n            isStaking[msg.sender] = false;\r\n            stakerCount--;\r\n\r\n            emit UnStake(msg.sender, totalAmount);\r\n        }\r\n    }\r\n\r\n    //internal view to public for testing\r\n    function poolOneReward(address _user) internal view returns (uint256) {\r\n        //pool 1 - Time 1 day\r\n        uint256 percentage = 100;\r\n        uint256 poolWeight = 20;\r\n        uint256 poolOneSupply = ((totalFarmSupply) * (poolWeight)) /\r\n            (percentage);\r\n        uint256 userAllocation = (stakingBalanceOf[_user] /\r\n            (totalStakeBalance)) * (percentage);\r\n        uint256 rewardOne = (poolOneSupply * (userAllocation)) / (percentage);\r\n        uint256 totalReward = rewardOne;\r\n        return totalReward;\r\n    }\r\n\r\n    function poolTwoReward(address _user) internal view returns (uint256) {\r\n        //pool 2 - Time 2 day\r\n        uint256 previousReward = poolOneReward(_user);\r\n        uint256 percentage = 100;\r\n        uint256 poolWeight = 30;\r\n        uint256 poolTwoSupply = ((totalFarmSupply) * (poolWeight)) /\r\n            (percentage);\r\n        uint256 userAllocation = (stakingBalanceOf[_user] /\r\n            (totalStakeBalance)) * (percentage);\r\n        uint256 rewardTwo = (poolTwoSupply * (userAllocation)) / (percentage);\r\n        uint256 totalReward = rewardTwo + previousReward;\r\n        return totalReward;\r\n    }\r\n\r\n    function poolThirdReward(address _user) internal view returns (uint256) {\r\n        //pool 3 - Time 3 day\r\n        uint256 previousReward = poolTwoReward(_user);\r\n        uint256 percentage = 100;\r\n        uint256 poolWeight = 50;\r\n        uint256 poolThirdSupply = ((totalFarmSupply) * (poolWeight)) /\r\n            (percentage);\r\n        uint256 userAllocation = (stakingBalanceOf[_user] /\r\n            (totalStakeBalance)) * (percentage);\r\n        uint256 rewardThird = (poolThirdSupply * (userAllocation)) /\r\n            (percentage);\r\n        uint256 totalReward = rewardThird + previousReward;\r\n        return totalReward;\r\n    }\r\n}\r\n",
  "sourcePath": "/mnt/c/pr0/Bank-Smart-Contract/src/contracts/BankSmartContract.sol",
  "compiler": {
    "name": "solc",
    "version": "0.8.10+commit.fc410830.Emscripten.clang"
  },
  "schemaVersion": "3.4.3",
  "updatedAt": "2022-03-12T04:31:56.643Z",
  "devdoc": {
    "kind": "dev",
    "methods": {},
    "version": 1
  },
  "userdoc": {
    "kind": "user",
    "methods": {},
    "version": 1
  }
}