{
  "contractName": "BankSmartContract",
  "abi": [
    {
      "inputs": [
        {
          "internalType": "contract Token",
          "name": "_token",
          "type": "address"
        }
      ],
      "stateMutability": "nonpayable",
      "type": "constructor"
    },
    {
      "anonymous": false,
      "inputs": [
        {
          "indexed": true,
          "internalType": "address",
          "name": "sender",
          "type": "address"
        },
        {
          "indexed": false,
          "internalType": "uint256",
          "name": "amount",
          "type": "uint256"
        }
      ],
      "name": "Stake",
      "type": "event"
    },
    {
      "anonymous": false,
      "inputs": [
        {
          "indexed": true,
          "internalType": "address",
          "name": "sender",
          "type": "address"
        },
        {
          "indexed": false,
          "internalType": "uint256",
          "name": "amount",
          "type": "uint256"
        }
      ],
      "name": "UnStake",
      "type": "event"
    },
    {
      "inputs": [
        {
          "internalType": "address",
          "name": "",
          "type": "address"
        }
      ],
      "name": "StakingbalanceOf",
      "outputs": [
        {
          "internalType": "uint256",
          "name": "",
          "type": "uint256"
        }
      ],
      "stateMutability": "view",
      "type": "function"
    },
    {
      "inputs": [],
      "name": "amount",
      "outputs": [
        {
          "internalType": "uint256",
          "name": "",
          "type": "uint256"
        }
      ],
      "stateMutability": "view",
      "type": "function"
    },
    {
      "inputs": [
        {
          "internalType": "uint256",
          "name": "",
          "type": "uint256"
        }
      ],
      "name": "hasApproved",
      "outputs": [
        {
          "internalType": "address",
          "name": "",
          "type": "address"
        }
      ],
      "stateMutability": "view",
      "type": "function"
    },
    {
      "inputs": [
        {
          "internalType": "address",
          "name": "",
          "type": "address"
        }
      ],
      "name": "isApproved",
      "outputs": [
        {
          "internalType": "bool",
          "name": "",
          "type": "bool"
        }
      ],
      "stateMutability": "view",
      "type": "function"
    },
    {
      "inputs": [
        {
          "internalType": "address",
          "name": "",
          "type": "address"
        }
      ],
      "name": "isStaking",
      "outputs": [
        {
          "internalType": "bool",
          "name": "",
          "type": "bool"
        }
      ],
      "stateMutability": "view",
      "type": "function"
    },
    {
      "inputs": [],
      "name": "owner",
      "outputs": [
        {
          "internalType": "address",
          "name": "",
          "type": "address"
        }
      ],
      "stateMutability": "view",
      "type": "function"
    },
    {
      "inputs": [],
      "name": "reward",
      "outputs": [
        {
          "internalType": "uint256",
          "name": "",
          "type": "uint256"
        }
      ],
      "stateMutability": "view",
      "type": "function"
    },
    {
      "inputs": [
        {
          "internalType": "address",
          "name": "",
          "type": "address"
        }
      ],
      "name": "rewardBalance",
      "outputs": [
        {
          "internalType": "uint256",
          "name": "",
          "type": "uint256"
        }
      ],
      "stateMutability": "view",
      "type": "function"
    },
    {
      "inputs": [
        {
          "internalType": "address",
          "name": "",
          "type": "address"
        }
      ],
      "name": "stakeTime",
      "outputs": [
        {
          "internalType": "uint256",
          "name": "",
          "type": "uint256"
        }
      ],
      "stateMutability": "view",
      "type": "function"
    },
    {
      "inputs": [],
      "name": "time",
      "outputs": [
        {
          "internalType": "uint256",
          "name": "",
          "type": "uint256"
        }
      ],
      "stateMutability": "view",
      "type": "function"
    },
    {
      "inputs": [],
      "name": "token",
      "outputs": [
        {
          "internalType": "contract Token",
          "name": "",
          "type": "address"
        }
      ],
      "stateMutability": "view",
      "type": "function"
    },
    {
      "inputs": [],
      "name": "totalStakeBalance",
      "outputs": [
        {
          "internalType": "uint256",
          "name": "",
          "type": "uint256"
        }
      ],
      "stateMutability": "view",
      "type": "function"
    },
    {
      "inputs": [
        {
          "internalType": "uint256",
          "name": "_amount",
          "type": "uint256"
        }
      ],
      "name": "stake",
      "outputs": [],
      "stateMutability": "payable",
      "type": "function"
    },
    {
      "inputs": [
        {
          "internalType": "uint256",
          "name": "_amount",
          "type": "uint256"
        }
      ],
      "name": "unStake",
      "outputs": [],
      "stateMutability": "payable",
      "type": "function"
    },
    {
      "inputs": [
        {
          "internalType": "address",
          "name": "_user",
          "type": "address"
        }
      ],
      "name": "poolOneReward",
      "outputs": [
        {
          "internalType": "uint256",
          "name": "",
          "type": "uint256"
        }
      ],
      "stateMutability": "nonpayable",
      "type": "function"
    },
    {
      "inputs": [
        {
          "internalType": "address",
          "name": "_user",
          "type": "address"
        }
      ],
      "name": "poolTwoReward",
      "outputs": [
        {
          "internalType": "uint256",
          "name": "",
          "type": "uint256"
        }
      ],
      "stateMutability": "nonpayable",
      "type": "function"
    },
    {
      "inputs": [
        {
          "internalType": "address",
          "name": "_user",
          "type": "address"
        }
      ],
      "name": "poolThirdReward",
      "outputs": [
        {
          "internalType": "uint256",
          "name": "",
          "type": "uint256"
        }
      ],
      "stateMutability": "nonpayable",
      "type": "function"
    }
  ],
  "bytecode": "0x6080604052683635c9adc5dea00000600055603c600555620151806006556202a3006007553480156200003157600080fd5b506040516200184b3803806200184b833981810160405281019062000057919062000165565b80600f60006101000a81548173ffffffffffffffffffffffffffffffffffffffff021916908373ffffffffffffffffffffffffffffffffffffffff16021790555033600160006101000a81548173ffffffffffffffffffffffffffffffffffffffff021916908373ffffffffffffffffffffffffffffffffffffffff160217905550426002819055505062000197565b600080fd5b600073ffffffffffffffffffffffffffffffffffffffff82169050919050565b60006200011982620000ec565b9050919050565b60006200012d826200010c565b9050919050565b6200013f8162000120565b81146200014b57600080fd5b50565b6000815190506200015f8162000134565b92915050565b6000602082840312156200017e576200017d620000e7565b5b60006200018e848285016200014e565b91505092915050565b6116a480620001a76000396000f3fe6080604052600436106100fe5760003560e01c80636f49712b11610095578063a694fc3a11610064578063a694fc3a14610376578063aa8c217c14610392578063b39336ab146103bd578063e73341ee146103fa578063fc0c546a14610437576100fe565b80636f49712b1461029457806376ec1b35146102d1578063848072c61461030e5780638da5cb5b1461034b576100fe565b806349367252116100d157806349367252146101c15780635d3eea91146101fe578063673448dd1461021a57806367b40cf714610257576100fe565b806316ada547146101035780632170e4721461012e578063228cb7331461016b57806334949cc114610196575b600080fd5b34801561010f57600080fd5b50610118610462565b60405161012591906110a3565b60405180910390f35b34801561013a57600080fd5b5061015560048036038101906101509190611121565b610468565b60405161016291906110a3565b60405180910390f35b34801561017757600080fd5b50610180610480565b60405161018d91906110a3565b60405180910390f35b3480156101a257600080fd5b506101ab610486565b6040516101b891906110a3565b60405180910390f35b3480156101cd57600080fd5b506101e860048036038101906101e3919061117a565b61048c565b6040516101f591906111b6565b60405180910390f35b6102186004803603810190610213919061117a565b6104cb565b005b34801561022657600080fd5b50610241600480360381019061023c9190611121565b6108b3565b60405161024e91906111ec565b60405180910390f35b34801561026357600080fd5b5061027e60048036038101906102799190611121565b6108d3565b60405161028b91906110a3565b60405180910390f35b3480156102a057600080fd5b506102bb60048036038101906102b69190611121565b6108eb565b6040516102c891906111ec565b60405180910390f35b3480156102dd57600080fd5b506102f860048036038101906102f39190611121565b61090b565b60405161030591906110a3565b60405180910390f35b34801561031a57600080fd5b5061033560048036038101906103309190611121565b6109d8565b60405161034291906110a3565b60405180910390f35b34801561035757600080fd5b506103606109f0565b60405161036d91906111b6565b60405180910390f35b610390600480360381019061038b919061117a565b610a16565b005b34801561039e57600080fd5b506103a7610edd565b6040516103b491906110a3565b60405180910390f35b3480156103c957600080fd5b506103e460048036038101906103df9190611121565b610ee3565b6040516103f191906110a3565b60405180910390f35b34801561040657600080fd5b50610421600480360381019061041c9190611121565b610fb0565b60405161042e91906110a3565b60405180910390f35b34801561044357600080fd5b5061044c611064565b6040516104599190611266565b60405180910390f35b60025481565b600e6020528060005260406000206000915090505481565b60005481565b60035481565b6009818154811061049c57600080fd5b906000526020600020016000915054906101000a900473ffffffffffffffffffffffffffffffffffffffff1681565b6000600a60003373ffffffffffffffffffffffffffffffffffffffff1673ffffffffffffffffffffffffffffffffffffffff1681526020019081526020016000205490506001600c60003373ffffffffffffffffffffffffffffffffffffffff1673ffffffffffffffffffffffffffffffffffffffff16815260200190815260200160002060006101000a81548160ff02191690831515021790556105a5576040517f08c379a000000000000000000000000000000000000000000000000000000000815260040161059c906112de565b60405180910390fd5b806000106105e8576040517f08c379a00000000000000000000000000000000000000000000000000000000081526004016105df9061134a565b60405180910390fd5b600080600654600854111561062e5761060033610fb0565b9150818361060e9190611399565b9050826003600082825461062291906113ef565b925050819055506106a5565b60075460085411156106715761064333610ee3565b915081836106519190611399565b9050826003600082825461066591906113ef565b925050819055506106a4565b61067a3361090b565b915081836106889190611399565b9050826003600082825461069c91906113ef565b925050819055505b5b600a60003373ffffffffffffffffffffffffffffffffffffffff1673ffffffffffffffffffffffffffffffffffffffff168152602001908152602001600020546000101561074a576001600c60003373ffffffffffffffffffffffffffffffffffffffff1673ffffffffffffffffffffffffffffffffffffffff16815260200190815260200160002060006101000a81548160ff02191690831515021790555061085f565b6000600c60003373ffffffffffffffffffffffffffffffffffffffff1673ffffffffffffffffffffffffffffffffffffffff16815260200190815260200160002060006101000a81548160ff021916908315150217905550600f60009054906101000a900473ffffffffffffffffffffffffffffffffffffffff1673ffffffffffffffffffffffffffffffffffffffff1663a9059cbb33866040518363ffffffff1660e01b81526004016107ff929190611423565b6020604051808303816000875af115801561081e573d6000803e3d6000fd5b505050506040513d601f19601f820116820180604052508101906108429190611478565b506004546003600082825461085791906113ef565b925050819055505b3373ffffffffffffffffffffffffffffffffffffffff167fb24546d975e2628748efc9aced80665e0fad66272033e5c0ea25fd3afac99795856040516108a591906110a3565b60405180910390a250505050565b600d6020528060005260406000206000915054906101000a900460ff1681565b600b6020528060005260406000206000915090505481565b600c6020528060005260406000206000915054906101000a900460ff1681565b60008061091783610ee3565b90506000606490506000603290506000828260035461093691906114a5565b610940919061152e565b9050600083600354600a60008a73ffffffffffffffffffffffffffffffffffffffff1673ffffffffffffffffffffffffffffffffffffffff16815260200190815260200160002054610992919061152e565b61099c91906114a5565b905060008482846109ad91906114a5565b6109b7919061152e565b9050600086826109c79190611399565b905080975050505050505050919050565b600a6020528060005260406000206000915090505481565b600160009054906101000a900473ffffffffffffffffffffffffffffffffffffffff1681565b8060008111610a5a576040517f08c379a0000000000000000000000000000000000000000000000000000000008152600401610a51906115ab565b60405180910390fd5b600073ffffffffffffffffffffffffffffffffffffffff163373ffffffffffffffffffffffffffffffffffffffff161415610aca576040517f08c379a0000000000000000000000000000000000000000000000000000000008152600401610ac190611617565b60405180910390fd5b6000600d60003373ffffffffffffffffffffffffffffffffffffffff1673ffffffffffffffffffffffffffffffffffffffff16815260200190815260200160002060006101000a81548160ff021916908315150217905515610c8357600f60009054906101000a900473ffffffffffffffffffffffffffffffffffffffff1673ffffffffffffffffffffffffffffffffffffffff1663095ea7b330846040518363ffffffff1660e01b8152600401610b83929190611423565b6020604051808303816000875af1158015610ba2573d6000803e3d6000fd5b505050506040513d601f19601f82011682018060405250810190610bc69190611478565b506009339080600181540180825580915050600190039060005260206000200160009091909190916101000a81548173ffffffffffffffffffffffffffffffffffffffff021916908373ffffffffffffffffffffffffffffffffffffffff1602179055506001600d60003373ffffffffffffffffffffffffffffffffffffffff1673ffffffffffffffffffffffffffffffffffffffff16815260200190815260200160002060006101000a81548160ff0219169083151502179055505b600f60009054906101000a900473ffffffffffffffffffffffffffffffffffffffff1673ffffffffffffffffffffffffffffffffffffffff166323b872dd3330856040518463ffffffff1660e01b8152600401610ce293929190611637565b6020604051808303816000875af1158015610d01573d6000803e3d6000fd5b505050506040513d601f19601f82011682018060405250810190610d259190611478565b506001600d60003373ffffffffffffffffffffffffffffffffffffffff1673ffffffffffffffffffffffffffffffffffffffff16815260200190815260200160002060006101000a81548160ff02191690831515021790555081600a60003373ffffffffffffffffffffffffffffffffffffffff1673ffffffffffffffffffffffffffffffffffffffff1681526020019081526020016000206000828254610dcd9190611399565b925050819055506001600c60003373ffffffffffffffffffffffffffffffffffffffff1673ffffffffffffffffffffffffffffffffffffffff16815260200190815260200160002060006101000a81548160ff02191690831515021790555042600e60003373ffffffffffffffffffffffffffffffffffffffff1673ffffffffffffffffffffffffffffffffffffffff1681526020019081526020016000208190555060045460036000828254610e849190611399565b925050819055503373ffffffffffffffffffffffffffffffffffffffff167febedb8b3c678666e7f36970bc8f57abf6d8fa2e828c0da91ea5b75bf68ed101a83604051610ed191906110a3565b60405180910390a25050565b60045481565b600080610eef83610fb0565b90506000606490506000601e905060008282600354610f0e91906114a5565b610f18919061152e565b9050600083600354600a60008a73ffffffffffffffffffffffffffffffffffffffff1673ffffffffffffffffffffffffffffffffffffffff16815260200190815260200160002054610f6a919061152e565b610f7491906114a5565b90506000848284610f8591906114a5565b610f8f919061152e565b905060008682610f9f9190611399565b905080975050505050505050919050565b6000806064905060006014905060008282600354610fce91906114a5565b610fd8919061152e565b9050600083600354600a60008973ffffffffffffffffffffffffffffffffffffffff1673ffffffffffffffffffffffffffffffffffffffff1681526020019081526020016000205461102a919061152e565b61103491906114a5565b9050600084828461104591906114a5565b61104f919061152e565b90506000819050809650505050505050919050565b600f60009054906101000a900473ffffffffffffffffffffffffffffffffffffffff1681565b6000819050919050565b61109d8161108a565b82525050565b60006020820190506110b86000830184611094565b92915050565b600080fd5b600073ffffffffffffffffffffffffffffffffffffffff82169050919050565b60006110ee826110c3565b9050919050565b6110fe816110e3565b811461110957600080fd5b50565b60008135905061111b816110f5565b92915050565b600060208284031215611137576111366110be565b5b60006111458482850161110c565b91505092915050565b6111578161108a565b811461116257600080fd5b50565b6000813590506111748161114e565b92915050565b6000602082840312156111905761118f6110be565b5b600061119e84828501611165565b91505092915050565b6111b0816110e3565b82525050565b60006020820190506111cb60008301846111a7565b92915050565b60008115159050919050565b6111e6816111d1565b82525050565b600060208201905061120160008301846111dd565b92915050565b6000819050919050565b600061122c611227611222846110c3565b611207565b6110c3565b9050919050565b600061123e82611211565b9050919050565b600061125082611233565b9050919050565b61126081611245565b82525050565b600060208201905061127b6000830184611257565b92915050565b600082825260208201905092915050565b7f596f752077697368000000000000000000000000000000000000000000000000600082015250565b60006112c8600883611281565b91506112d382611292565b602082019050919050565b600060208201905081810360008301526112f7816112bb565b9050919050565b7f4e6f20746f6b656e7320746f20756e7374616b65000000000000000000000000600082015250565b6000611334601483611281565b915061133f826112fe565b602082019050919050565b6000602082019050818103600083015261136381611327565b9050919050565b7f4e487b7100000000000000000000000000000000000000000000000000000000600052601160045260246000fd5b60006113a48261108a565b91506113af8361108a565b9250827fffffffffffffffffffffffffffffffffffffffffffffffffffffffffffffffff038211156113e4576113e361136a565b5b828201905092915050565b60006113fa8261108a565b91506114058361108a565b9250828210156114185761141761136a565b5b828203905092915050565b600060408201905061143860008301856111a7565b6114456020830184611094565b9392505050565b611455816111d1565b811461146057600080fd5b50565b6000815190506114728161144c565b92915050565b60006020828403121561148e5761148d6110be565b5b600061149c84828501611463565b91505092915050565b60006114b08261108a565b91506114bb8361108a565b9250817fffffffffffffffffffffffffffffffffffffffffffffffffffffffffffffffff04831182151516156114f4576114f361136a565b5b828202905092915050565b7f4e487b7100000000000000000000000000000000000000000000000000000000600052601260045260246000fd5b60006115398261108a565b91506115448361108a565b925082611554576115536114ff565b5b828204905092915050565b7f616d6f756e742073686f756c6420626520626967676572207468616e20300000600082015250565b6000611595601e83611281565b91506115a08261155f565b602082019050919050565b600060208201905081810360008301526115c481611588565b9050919050565b7f42616e6b2063616e6e6f74206465706f73697420746f20706f6f6c0000000000600082015250565b6000611601601b83611281565b915061160c826115cb565b602082019050919050565b60006020820190508181036000830152611630816115f4565b9050919050565b600060608201905061164c60008301866111a7565b61165960208301856111a7565b6116666040830184611094565b94935050505056fea2646970667358221220b4d1d99730c5627f6dc7db19ee2b4883e56c9871ad75610cd4ca6e7e600c606864736f6c634300080a0033",
  "immutableReferences": {},
  "source": "// SPDX-License-Identifier: MIT\r\n\r\npragma solidity ^0.8.10;\r\n\r\nimport \"./Token.sol\";\r\n\r\n/* things we need to build the staking system:\r\n1. Token contract - import from openzeppelin,\r\n2. Mapping to track the stakeholders, rewards, stakes (staking amount)\r\n3. A reward system\r\n*/\r\n\r\ncontract BankSmartContract {\r\n    uint256 public reward = 1000 * 1e18; // 1000 in rewards - farm supply\r\n    address public owner;\r\n    uint256 public time;\r\n    uint256 public totalStakeBalance;\r\n    uint256 public amount;\r\n    uint256 private duration = 60 seconds;\r\n    uint256 private poolOneTime = 86400 seconds; // Reward can be claimed after 1 day.\r\n    uint256 private poolTwoTime = 172800 seconds; // Reward can be claimed after 2 days.\r\n    uint256 private totalStakedTime;\r\n\r\n    address[] public hasApproved;\r\n\r\n    //Balances of the users -\r\n    mapping(address => uint256) public StakingbalanceOf;\r\n    mapping(address => uint256) public rewardBalance;\r\n    mapping(address => bool) public isStaking;\r\n    //mapping(address => bool) approved;\r\n    //address[] public hasApproved;\r\n    mapping(address => bool) public isApproved;\r\n    mapping(address => uint256) public stakeTime;\r\n\r\n    event Stake(address indexed sender, uint256 amount);\r\n    event UnStake(address indexed sender, uint256 amount);\r\n    Token public token;\r\n\r\n    constructor(Token _token) {\r\n        token = _token;\r\n        owner = msg.sender;\r\n        time = block.timestamp;\r\n        //totalStake += amount;\r\n    }\r\n\r\n    modifier checkBalance(uint256 _amount) {\r\n        require(_amount > 0, \"amount should be bigger than 0\");\r\n        _;\r\n    }\r\n\r\n    function stake(uint256 _amount) public payable checkBalance(_amount) {\r\n        //require(_amount > 0, \"amount should be bigger than 0\");\r\n        require(msg.sender != address(0), \"Bank cannot deposit to pool\");\r\n\r\n        //this can be used but wont be neccessary, uncomment if you wish to use.\r\n        if (isApproved[msg.sender] = false) {\r\n            token.approve(address(this), _amount);\r\n            hasApproved.push(msg.sender);\r\n            isApproved[msg.sender] = true;\r\n        }\r\n\r\n        token.transferFrom(msg.sender, address(this), _amount);\r\n\r\n        //update the user's balance\r\n        isApproved[msg.sender] = true;\r\n        StakingbalanceOf[msg.sender] += _amount;\r\n        isStaking[msg.sender] = true;\r\n        stakeTime[msg.sender] = block.timestamp;\r\n        totalStakeBalance += amount;\r\n\r\n        //emit to notify the change onto blockchain\r\n        emit Stake(msg.sender, _amount);\r\n    }\r\n\r\n    function unStake(uint256 _amount) public payable {\r\n        uint256 balance = StakingbalanceOf[msg.sender];\r\n        require(isStaking[msg.sender] = true, \"You wish\");\r\n        require(0 < balance, \"No tokens to unstake\");\r\n        uint256 rewards;\r\n        uint256 amountUnStake;\r\n\r\n        if (totalStakedTime > poolOneTime) {\r\n            rewards = poolOneReward(msg.sender);\r\n            amountUnStake = balance + rewards;\r\n            totalStakeBalance -= balance;\r\n        } else if (totalStakedTime > poolTwoTime) {\r\n            rewards = poolTwoReward(msg.sender);\r\n            amountUnStake = balance + rewards;\r\n            totalStakeBalance -= balance;\r\n        } else {\r\n            rewards = poolThirdReward(msg.sender);\r\n            amountUnStake = balance + rewards;\r\n            totalStakeBalance -= balance;\r\n        }\r\n\r\n        if (0 < StakingbalanceOf[msg.sender]) {\r\n            isStaking[msg.sender] = true;\r\n        } else {\r\n            isStaking[msg.sender] = false;\r\n            token.transfer(msg.sender, _amount);\r\n            totalStakeBalance -= amount;\r\n        }\r\n\r\n        //StakingbalanceOf[msg.sender] += rewardOne;\r\n\r\n        emit UnStake(msg.sender, _amount);\r\n    }\r\n\r\n    //internal view to public for testing\r\n    function poolOneReward(address _user) public returns (uint256) {\r\n        //pool 1 - Time 1 day\r\n        uint256 percentage = 100;\r\n        uint256 poolWeight = 20;\r\n        uint256 poolOneSupply = ((totalStakeBalance) * (poolWeight)) /\r\n            (percentage);\r\n        uint256 userAllocation = (StakingbalanceOf[_user] /\r\n            (totalStakeBalance)) * (percentage);\r\n        uint256 rewardOne = (poolOneSupply * (userAllocation)) / (percentage);\r\n        //rewardOnePool[msg.sender] += rewardOne;\r\n        uint256 totalReward = rewardOne;\r\n        return totalReward;\r\n    }\r\n\r\n    function poolTwoReward(address _user) public returns (uint256) {\r\n        //pool 2 - Time 2 day\r\n        uint256 previousReward = poolOneReward(_user);\r\n        uint256 percentage = 100;\r\n        uint256 poolWeight = 30;\r\n        uint256 poolTwoSupply = ((totalStakeBalance) * (poolWeight)) /\r\n            (percentage);\r\n        uint256 userAllocation = (StakingbalanceOf[_user] /\r\n            (totalStakeBalance)) * (percentage);\r\n        uint256 rewardTwo = (poolTwoSupply * (userAllocation)) / (percentage);\r\n        uint256 totalReward = rewardTwo + previousReward;\r\n        return totalReward;\r\n    }\r\n\r\n    function poolThirdReward(address _user) public returns (uint256) {\r\n        //pool 3 - Time 3 day\r\n        uint256 previousReward = poolTwoReward(_user);\r\n        uint256 percentage = 100;\r\n        uint256 poolWeight = 50;\r\n        uint256 poolThirdSupply = ((totalStakeBalance) * (poolWeight)) /\r\n            (percentage);\r\n        uint256 userAllocation = (StakingbalanceOf[_user] /\r\n            (totalStakeBalance)) * (percentage);\r\n        uint256 rewardThird = (poolThirdSupply * (userAllocation)) /\r\n            (percentage);\r\n        uint256 totalReward = rewardThird + previousReward;\r\n        return totalReward;\r\n    }\r\n}\r\n",
  "sourcePath": "/mnt/c/pr0/Bank-Smart-Contract/src/contracts/BankSmartContract.sol",
  "compiler": {
    "name": "solc",
    "version": "0.8.10+commit.fc410830.Emscripten.clang"
  },
  "schemaVersion": "3.4.3",
  "updatedAt": "2022-03-08T21:19:33.675Z",
  "devdoc": {
    "kind": "dev",
    "methods": {},
    "version": 1
  },
  "userdoc": {
    "kind": "user",
    "methods": {},
    "version": 1
  }
}