{
  "contractName": "BankSmartContract",
  "abi": [
    {
      "inputs": [
        {
          "internalType": "contract Token",
          "name": "_token",
          "type": "address"
        }
      ],
      "stateMutability": "nonpayable",
      "type": "constructor"
    },
    {
      "anonymous": false,
      "inputs": [
        {
          "indexed": true,
          "internalType": "address",
          "name": "sender",
          "type": "address"
        },
        {
          "indexed": false,
          "internalType": "uint256",
          "name": "amount",
          "type": "uint256"
        }
      ],
      "name": "Stake",
      "type": "event"
    },
    {
      "anonymous": false,
      "inputs": [
        {
          "indexed": true,
          "internalType": "address",
          "name": "sender",
          "type": "address"
        },
        {
          "indexed": false,
          "internalType": "uint256",
          "name": "amount",
          "type": "uint256"
        }
      ],
      "name": "UnStake",
      "type": "event"
    },
    {
      "inputs": [],
      "name": "amount",
      "outputs": [
        {
          "internalType": "uint256",
          "name": "",
          "type": "uint256"
        }
      ],
      "stateMutability": "view",
      "type": "function",
      "constant": true
    },
    {
      "inputs": [
        {
          "internalType": "address",
          "name": "",
          "type": "address"
        }
      ],
      "name": "balanceOf",
      "outputs": [
        {
          "internalType": "uint256",
          "name": "",
          "type": "uint256"
        }
      ],
      "stateMutability": "view",
      "type": "function",
      "constant": true
    },
    {
      "inputs": [
        {
          "internalType": "uint256",
          "name": "",
          "type": "uint256"
        }
      ],
      "name": "hasApproved",
      "outputs": [
        {
          "internalType": "address",
          "name": "",
          "type": "address"
        }
      ],
      "stateMutability": "view",
      "type": "function",
      "constant": true
    },
    {
      "inputs": [
        {
          "internalType": "address",
          "name": "",
          "type": "address"
        }
      ],
      "name": "isApproved",
      "outputs": [
        {
          "internalType": "bool",
          "name": "",
          "type": "bool"
        }
      ],
      "stateMutability": "view",
      "type": "function",
      "constant": true
    },
    {
      "inputs": [
        {
          "internalType": "address",
          "name": "",
          "type": "address"
        }
      ],
      "name": "isStaking",
      "outputs": [
        {
          "internalType": "bool",
          "name": "",
          "type": "bool"
        }
      ],
      "stateMutability": "view",
      "type": "function",
      "constant": true
    },
    {
      "inputs": [],
      "name": "owner",
      "outputs": [
        {
          "internalType": "address",
          "name": "",
          "type": "address"
        }
      ],
      "stateMutability": "view",
      "type": "function",
      "constant": true
    },
    {
      "inputs": [],
      "name": "reward",
      "outputs": [
        {
          "internalType": "uint256",
          "name": "",
          "type": "uint256"
        }
      ],
      "stateMutability": "view",
      "type": "function",
      "constant": true
    },
    {
      "inputs": [
        {
          "internalType": "address",
          "name": "",
          "type": "address"
        }
      ],
      "name": "rewardBalance",
      "outputs": [
        {
          "internalType": "uint256",
          "name": "",
          "type": "uint256"
        }
      ],
      "stateMutability": "view",
      "type": "function",
      "constant": true
    },
    {
      "inputs": [
        {
          "internalType": "address",
          "name": "",
          "type": "address"
        }
      ],
      "name": "stakeTime",
      "outputs": [
        {
          "internalType": "uint256",
          "name": "",
          "type": "uint256"
        }
      ],
      "stateMutability": "view",
      "type": "function",
      "constant": true
    },
    {
      "inputs": [],
      "name": "time",
      "outputs": [
        {
          "internalType": "uint256",
          "name": "",
          "type": "uint256"
        }
      ],
      "stateMutability": "view",
      "type": "function",
      "constant": true
    },
    {
      "inputs": [],
      "name": "token",
      "outputs": [
        {
          "internalType": "contract Token",
          "name": "",
          "type": "address"
        }
      ],
      "stateMutability": "view",
      "type": "function",
      "constant": true
    },
    {
      "inputs": [],
      "name": "totalStake",
      "outputs": [
        {
          "internalType": "uint256",
          "name": "",
          "type": "uint256"
        }
      ],
      "stateMutability": "view",
      "type": "function",
      "constant": true
    },
    {
      "inputs": [
        {
          "internalType": "uint256",
          "name": "_amount",
          "type": "uint256"
        }
      ],
      "name": "stake",
      "outputs": [],
      "stateMutability": "payable",
      "type": "function",
      "payable": true
    },
    {
      "inputs": [
        {
          "internalType": "uint256",
          "name": "_amount",
          "type": "uint256"
        }
      ],
      "name": "unStake",
      "outputs": [],
      "stateMutability": "payable",
      "type": "function",
      "payable": true
    }
  ],
  "bytecode": "0x6080604052683635c9adc5dea000006000553480156200001e57600080fd5b50604051620011f5380380620011f5833981810160405281019062000044919062000152565b80600b60006101000a81548173ffffffffffffffffffffffffffffffffffffffff021916908373ffffffffffffffffffffffffffffffffffffffff16021790555033600160006101000a81548173ffffffffffffffffffffffffffffffffffffffff021916908373ffffffffffffffffffffffffffffffffffffffff160217905550426002819055505062000184565b600080fd5b600073ffffffffffffffffffffffffffffffffffffffff82169050919050565b60006200010682620000d9565b9050919050565b60006200011a82620000f9565b9050919050565b6200012c816200010d565b81146200013857600080fd5b50565b6000815190506200014c8162000121565b92915050565b6000602082840312156200016b576200016a620000d4565b5b60006200017b848285016200013b565b91505092915050565b61106180620001946000396000f3fe6080604052600436106100dd5760003560e01c80636f49712b1161007f5780638da5cb5b116100595780638da5cb5b146102ed578063a694fc3a14610318578063aa8c217c14610334578063fc0c546a1461035f576100dd565b80636f49712b1461024857806370a08231146102855780638b0e9f3f146102c2576100dd565b806349367252116100bb57806349367252146101755780635d3eea91146101b2578063673448dd146101ce57806367b40cf71461020b576100dd565b806316ada547146100e25780632170e4721461010d578063228cb7331461014a575b600080fd5b3480156100ee57600080fd5b506100f761038a565b6040516101049190610bf2565b60405180910390f35b34801561011957600080fd5b50610134600480360381019061012f9190610c70565b610390565b6040516101419190610bf2565b60405180910390f35b34801561015657600080fd5b5061015f6103a8565b60405161016c9190610bf2565b60405180910390f35b34801561018157600080fd5b5061019c60048036038101906101979190610cc9565b6103ae565b6040516101a99190610d05565b60405180910390f35b6101cc60048036038101906101c79190610cc9565b6103ed565b005b3480156101da57600080fd5b506101f560048036038101906101f09190610c70565b6106cc565b6040516102029190610d3b565b60405180910390f35b34801561021757600080fd5b50610232600480360381019061022d9190610c70565b6106ec565b60405161023f9190610bf2565b60405180910390f35b34801561025457600080fd5b5061026f600480360381019061026a9190610c70565b610704565b60405161027c9190610d3b565b60405180910390f35b34801561029157600080fd5b506102ac60048036038101906102a79190610c70565b610724565b6040516102b99190610bf2565b60405180910390f35b3480156102ce57600080fd5b506102d761073c565b6040516102e49190610bf2565b60405180910390f35b3480156102f957600080fd5b50610302610742565b60405161030f9190610d05565b60405180910390f35b610332600480360381019061032d9190610cc9565b610768565b005b34801561034057600080fd5b50610349610bad565b6040516103569190610bf2565b60405180910390f35b34801561036b57600080fd5b50610374610bb3565b6040516103819190610db5565b60405180910390f35b60025481565b600a6020528060005260406000206000915090505481565b60005481565b600781815481106103be57600080fd5b906000526020600020016000915054906101000a900473ffffffffffffffffffffffffffffffffffffffff1681565b60011515600660003373ffffffffffffffffffffffffffffffffffffffff1673ffffffffffffffffffffffffffffffffffffffff16815260200190815260200160002060009054906101000a900460ff16151514610480576040517f08c379a000000000000000000000000000000000000000000000000000000000815260040161047790610e2d565b60405180910390fd5b80600560003373ffffffffffffffffffffffffffffffffffffffff1673ffffffffffffffffffffffffffffffffffffffff16815260200190815260200160002060008282546104cf9190610e7c565b925050819055506000600560003373ffffffffffffffffffffffffffffffffffffffff1673ffffffffffffffffffffffffffffffffffffffff16815260200190815260200160002054111561056f5760011515600660003373ffffffffffffffffffffffffffffffffffffffff1673ffffffffffffffffffffffffffffffffffffffff16815260200190815260200160002060009054906101000a905050505b60001515600660003373ffffffffffffffffffffffffffffffffffffffff1673ffffffffffffffffffffffffffffffffffffffff16815260200190815260200160002060009054906101000a90505050600b60009054906101000a900473ffffffffffffffffffffffffffffffffffffffff1673ffffffffffffffffffffffffffffffffffffffff1663a9059cbb33836040518363ffffffff1660e01b815260040161061c929190610eb0565b6020604051808303816000875af115801561063b573d6000803e3d6000fd5b505050506040513d601f19601f8201168201806040525081019061065f9190610f05565b50600454600360008282546106749190610e7c565b925050819055503373ffffffffffffffffffffffffffffffffffffffff167fb24546d975e2628748efc9aced80665e0fad66272033e5c0ea25fd3afac99795826040516106c19190610bf2565b60405180910390a250565b60086020528060005260406000206000915054906101000a900460ff1681565b60096020528060005260406000206000915090505481565b60066020528060005260406000206000915054906101000a900460ff1681565b60056020528060005260406000206000915090505481565b60035481565b600160009054906101000a900473ffffffffffffffffffffffffffffffffffffffff1681565b600081116107ab576040517f08c379a00000000000000000000000000000000000000000000000000000000081526004016107a290610f7e565b60405180910390fd5b6000600860003373ffffffffffffffffffffffffffffffffffffffff1673ffffffffffffffffffffffffffffffffffffffff16815260200190815260200160002060006101000a81548160ff02191690831515021790551561096457600b60009054906101000a900473ffffffffffffffffffffffffffffffffffffffff1673ffffffffffffffffffffffffffffffffffffffff1663095ea7b330836040518363ffffffff1660e01b8152600401610864929190610eb0565b6020604051808303816000875af1158015610883573d6000803e3d6000fd5b505050506040513d601f19601f820116820180604052508101906108a79190610f05565b506007339080600181540180825580915050600190039060005260206000200160009091909190916101000a81548173ffffffffffffffffffffffffffffffffffffffff021916908373ffffffffffffffffffffffffffffffffffffffff1602179055506001600860003373ffffffffffffffffffffffffffffffffffffffff1673ffffffffffffffffffffffffffffffffffffffff16815260200190815260200160002060006101000a81548160ff0219169083151502179055505b600b60009054906101000a900473ffffffffffffffffffffffffffffffffffffffff1673ffffffffffffffffffffffffffffffffffffffff166323b872dd3330846040518463ffffffff1660e01b81526004016109c393929190610f9e565b6020604051808303816000875af11580156109e2573d6000803e3d6000fd5b505050506040513d601f19601f82011682018060405250810190610a069190610f05565b5060011515600860003373ffffffffffffffffffffffffffffffffffffffff1673ffffffffffffffffffffffffffffffffffffffff16815260200190815260200160002060009054906101000a9050505080600560003373ffffffffffffffffffffffffffffffffffffffff1673ffffffffffffffffffffffffffffffffffffffff1681526020019081526020016000206000828254610aa69190610fd5565b9250508190555060011515600660003373ffffffffffffffffffffffffffffffffffffffff1673ffffffffffffffffffffffffffffffffffffffff16815260200190815260200160002060009054906101000a9050505042600a60003373ffffffffffffffffffffffffffffffffffffffff1673ffffffffffffffffffffffffffffffffffffffff1681526020019081526020016000208190555060045460036000828254610b559190610fd5565b925050819055503373ffffffffffffffffffffffffffffffffffffffff167febedb8b3c678666e7f36970bc8f57abf6d8fa2e828c0da91ea5b75bf68ed101a82604051610ba29190610bf2565b60405180910390a250565b60045481565b600b60009054906101000a900473ffffffffffffffffffffffffffffffffffffffff1681565b6000819050919050565b610bec81610bd9565b82525050565b6000602082019050610c076000830184610be3565b92915050565b600080fd5b600073ffffffffffffffffffffffffffffffffffffffff82169050919050565b6000610c3d82610c12565b9050919050565b610c4d81610c32565b8114610c5857600080fd5b50565b600081359050610c6a81610c44565b92915050565b600060208284031215610c8657610c85610c0d565b5b6000610c9484828501610c5b565b91505092915050565b610ca681610bd9565b8114610cb157600080fd5b50565b600081359050610cc381610c9d565b92915050565b600060208284031215610cdf57610cde610c0d565b5b6000610ced84828501610cb4565b91505092915050565b610cff81610c32565b82525050565b6000602082019050610d1a6000830184610cf6565b92915050565b60008115159050919050565b610d3581610d20565b82525050565b6000602082019050610d506000830184610d2c565b92915050565b6000819050919050565b6000610d7b610d76610d7184610c12565b610d56565b610c12565b9050919050565b6000610d8d82610d60565b9050919050565b6000610d9f82610d82565b9050919050565b610daf81610d94565b82525050565b6000602082019050610dca6000830184610da6565b92915050565b600082825260208201905092915050565b7f596f752077697368000000000000000000000000000000000000000000000000600082015250565b6000610e17600883610dd0565b9150610e2282610de1565b602082019050919050565b60006020820190508181036000830152610e4681610e0a565b9050919050565b7f4e487b7100000000000000000000000000000000000000000000000000000000600052601160045260246000fd5b6000610e8782610bd9565b9150610e9283610bd9565b925082821015610ea557610ea4610e4d565b5b828203905092915050565b6000604082019050610ec56000830185610cf6565b610ed26020830184610be3565b9392505050565b610ee281610d20565b8114610eed57600080fd5b50565b600081519050610eff81610ed9565b92915050565b600060208284031215610f1b57610f1a610c0d565b5b6000610f2984828501610ef0565b91505092915050565b7f616d6f756e742073686f756c6420626520626967676572207468616e20300000600082015250565b6000610f68601e83610dd0565b9150610f7382610f32565b602082019050919050565b60006020820190508181036000830152610f9781610f5b565b9050919050565b6000606082019050610fb36000830186610cf6565b610fc06020830185610cf6565b610fcd6040830184610be3565b949350505050565b6000610fe082610bd9565b9150610feb83610bd9565b9250827fffffffffffffffffffffffffffffffffffffffffffffffffffffffffffffffff038211156110205761101f610e4d565b5b82820190509291505056fea2646970667358221220416afe4b6d2823303c24d53cffd58ee70f001ae6f024d221d5e94d3f1cd62d0a64736f6c634300080a0033",
  "immutableReferences": {},
  "source": "// SPDX-License-Identifier: MIT\r\n\r\npragma solidity ^0.8.10;\r\n\r\nimport \"./Token.sol\";\r\n\r\n/* things we need to build the staking system:\r\n1. Token contract - import from openzeppelin,\r\n2. Mapping to track the stakeholders, rewards, stakes (staking amount)\r\n3. A reward system\r\n*/\r\n\r\ncontract BankSmartContract {\r\n    uint256 public reward = 1000 * 1e18; // 1000 in rewards - farm supply\r\n    address public owner;\r\n    uint256 public time;\r\n    uint256 public totalStake;\r\n    uint256 public amount;\r\n\r\n    //Balances of the users -\r\n    mapping(address => uint256) public balanceOf;\r\n    mapping(address => bool) public isStaking;\r\n    //mapping(address => bool) approved;\r\n    address[] public hasApproved;\r\n    mapping(address => bool) public isApproved;\r\n    mapping(address => uint256) public rewardBalance;\r\n    mapping(address => uint256) public stakeTime;\r\n\r\n    event Stake(address indexed sender, uint256 amount);\r\n    event UnStake(address indexed sender, uint256 amount);\r\n    Token public token;\r\n\r\n    // contructor\r\n    constructor(Token _token) {\r\n        token = _token;\r\n        owner = msg.sender;\r\n        time = block.timestamp;\r\n        //totalStake += amount;\r\n    }\r\n\r\n    /*function _addApprover(address _approver) public {\r\n        isApproved[_approver] = true;\r\n    }*/\r\n\r\n    //stake function\r\n    function stake(uint256 _amount) public payable {\r\n        require(_amount > 0, \"amount should be bigger than 0\");\r\n\r\n        if (isApproved[msg.sender] = false) {\r\n            token.approve(address(this), _amount);\r\n            hasApproved.push(msg.sender);\r\n            isApproved[msg.sender] = true;\r\n        }\r\n\r\n        token.transferFrom(msg.sender, address(this), _amount);\r\n        //update the user's balance\r\n        isApproved[msg.sender] == true;\r\n        balanceOf[msg.sender] += _amount;\r\n        isStaking[msg.sender] == true;\r\n        stakeTime[msg.sender] = block.timestamp;\r\n        totalStake += amount;\r\n\r\n        //emit to notify the change onto blockchain\r\n        emit Stake(msg.sender, _amount);\r\n    }\r\n\r\n    function unStake(uint256 _amount) public payable {\r\n        require(isStaking[msg.sender] == true, \"You wish\");\r\n        balanceOf[msg.sender] -= _amount;\r\n        if (balanceOf[msg.sender] > 0) {\r\n            isStaking[msg.sender] == true;\r\n        }\r\n        isStaking[msg.sender] == false;\r\n        token.transfer(msg.sender, _amount);\r\n        totalStake -= amount;\r\n\r\n        emit UnStake(msg.sender, _amount);\r\n    }\r\n\r\n    function poolOneReward(address _user) internal view returns (uint256) {\r\n        //pool 1 - Time 1 day\r\n        uint256 percentage = 100;\r\n        uint256 poolWeight = 20;\r\n        uint256 poolOneSupply = ((totalStake) * (poolWeight)) / (percentage);\r\n        uint256 userAllocation = (balanceOf[_user] / (totalStake)) *\r\n            (percentage);\r\n        uint256 rewardOne = (poolOneSupply * (userAllocation)) / (percentage);\r\n        return rewardOne;\r\n    }\r\n\r\n    function poolTwoReward(address _user) internal view returns (uint256) {\r\n        //pool 1 - Time 1 day\r\n        uint256 previousReward = poolOneReward(_user);\r\n        uint256 percentage = 100;\r\n        uint256 poolWeight = 30;\r\n        uint256 poolTwoSupply = ((totalStake) * (poolWeight)) / (percentage);\r\n        uint256 userAllocation = (balanceOf[_user] / (totalStake)) *\r\n            (percentage);\r\n        uint256 rewardTwo = (poolTwoSupply * (userAllocation)) / (percentage);\r\n        uint256 totalReward = rewardTwo + previousReward;\r\n        return totalReward;\r\n    }\r\n\r\n    function poolThirdReward(address _user) internal view returns (uint256) {\r\n        //pool 1 - Time 1 day\r\n        uint256 previousReward = poolTwoReward(_user);\r\n        uint256 percentage = 100;\r\n        uint256 poolWeight = 50;\r\n        uint256 poolThirdSupply = ((totalStake) * (poolWeight)) / (percentage);\r\n        uint256 userAllocation = (balanceOf[_user] / (totalStake)) *\r\n            (percentage);\r\n        uint256 rewardThird = (poolThirdSupply * (userAllocation)) /\r\n            (percentage);\r\n        uint256 totalReward = rewardThird + previousReward;\r\n        return totalReward;\r\n    }\r\n}\r\n",
  "sourcePath": "/mnt/c/pr0/Bank-Smart-Contract/src/contracts/BankSmartContract.sol",
  "compiler": {
    "name": "solc",
    "version": "0.8.10+commit.fc410830.Emscripten.clang"
  },
  "schemaVersion": "3.4.3",
  "updatedAt": "2022-02-22T10:53:13.436Z",
  "networkType": "ethereum",
  "devdoc": {
    "kind": "dev",
    "methods": {},
    "version": 1
  },
  "userdoc": {
    "kind": "user",
    "methods": {},
    "version": 1
  }
}